:100000000C94C4020C9491030C94E1020C94E10250
:100010000C94E1020C94E1020C94E1020C94EC07C4
:100020000C94E1020C94E1020C94E1020C94E102C4
:100030000C94E1020C94E1020C94E1020C94E102B4
:100040000C94E1020C94E1020C94E1020C949F09DF
:100050000C94E1020C94E1020C94E1020C94E10294
:100060000C94E1020C94E1020C94E1020C94E10284
:10007000008040201008080804040408081060806C
:10008000000000000000001C638000000000000071
:1000900000008040201009FE000000000000000069
:1000A00000010102020404060504040404081122EC
:1000B0004488502000000000000000005F000000A5
:1000C00007000700147F147F14242A7F2A122313A9
:1000D00008646236495522500005030000001C22C6
:1000E00041000041221C00082A1C2A0808083E087A
:1000F0000800503000000808080808006060000090
:1001000020100804023E5149453E00427F40004213
:10011000615149462141454B311814127F10274542
:100120004545393C4A494930017109050336494979
:100130004936064949291E00363600000056360069
:10014000000008142241141414141441221408004D
:100150000201510906324979413E7E1111117E7F1B
:10016000494949363E414141227F4141221C7F4954
:100170004949417F090901013E414151327F080847
:10018000087F00417F41002040413F017F08142249
:10019000417F404040407F0204027F7F0408107F7F
:1001A0003E4141413E7F090909063E4151215E7FA2
:1001B00009192946464949493101017F01013F405A
:1001C00040403F1F2040201F7F2018207F631408DD
:1001D00014630304780403615149454300007F41DF
:1001E00041020408102041417F0000040201020482
:1001F0004040404040000102040020545454787FA5
:10020000484444383844444420384444487F3854AF
:10021000545418087E090102081454543C7F080401
:10022000047800447D40002040443D00007F1028B9
:100230004400417F40007C041804787C0804047862
:1002400038444444387C14141408081414187C7C72
:10025000080404084854545420043F4440203C40BF
:1002600040207C1C2040201C3C4030403C44281056
:1002700028440C5050503C4464544C4400083641CF
:100280000000007F00000041360800020103020167
:10029000000000000000000000065F5F0600000094
:1002A0000007070007070000147F7F147F7F1400FA
:1002B000242E6B6B3A120000466630180C66620002
:1002C000307A4F5D377A48000407030000000000D1
:1002D000001C3E63410000000041633E1C00000022
:1002E000082A3E1C1C3E2A0808083E3E080800005A
:1002F00000A0E060000000000808080808080000EE
:1003000000006060000000006030180C060301006F
:100310003E7F594D7F3E000042427F7F40400000BB
:10032000627359496F660000226349497F360000B5
:10033000181C16137F7F1000276745457D39000084
:100340003C7E4B4979300000036371190F070000B0
:10035000367F49497F360000064F49693F1E00003D
:1003600000006C6C0000000000A0EC6C00000000BD
:10037000081C366341000000141414141414000007
:10038000004163361C080000020351590F060000AB
:100390003E7F415D5D1F1E007C7E13137E7C00004E
:1003A000417F7F49497F36001C3E63414163220003
:1003B000417F7F41637F1C00417F7F495D41630036
:1003C000417F7F491D0103001C3E63415173720050
:1003D0007F7F08087F7F000000417F7F4100000091
:1003E000307040417F3F0100417F7F081C776300F0
:1003F000417F7F41406070007F7F060C067F7F0059
:100400007F7F060C187F7F001C3E6341633E1C000B
:10041000417F7F49090F06001E3F21717F5E00006A
:10042000417F7F19396F460026674D597B320000A6
:1004300003417F7F410300007F7F40407F7F0000BA
:100440001F3F60603F1F00007F7F3018307F7F00BC
:1004500063771C081C776300074F78784F0700000C
:100460006773594D47637100007F7F414100000071
:100470000103060C183060000041417F7F0000003E
:10048000080C0603060C0800808080808080808035
:100490000000030704000000207454543C7840001E
:1004A000413F7F44447C3800387C44446C28000041
:1004B000307848493F7F4000387C54545C18000035
:1004C000487E7F490302000098BCA4A4F87C040085
:1004D000417F7F08047C780000447D7D400000005F
:1004E00040C484FD7D000000417F7F10386C4400D3
:1004F00000417F7F400000007C7C0C180C7C780061
:100500007C7C04047C780000387C44447C38000007
:1005100084FCF8A4243C1800183C24A4F8FC8400B3
:10052000447C78441C180000485C54547424000037
:1005300000043E7F442400003C7C40403C7C400062
:100540001C3C60603C1C00003C7C6030607C3C00DB
:10055000446C3810386C44009CBCA0A0FC7C0000AB
:100560004C64745C4C64000008083E774141000014
:1005700000000077770000004141773E0808000046
:10058000020301030203010011241FBECFEFD4E0D8
:10059000DEBFCDBF11E0A0E0B1E0E2E5FAE102C0CC
:1005A00005900D92AE3AB107D9F721E0AEEAB1E07D
:1005B00001C01D92A43DB207E1F70E94A2050C9470
:1005C000270D0C94000081B3806281BB81B3877FCB
:1005D00081BB89E08EBD80E48FBD82E090E09BBD51
:1005E0008ABD81B38F7E81BB0895CF93DF93FC01D9
:1005F0001092001000C0849BFECFA0E0B0E18C916F
:10060000CEEAD1E02881398190E0821B930B91835F
:1006100080838C912A813B8190E0821B930B938392
:1006200082838C9190E0958384838C9190E0978372
:10063000868380B386958695869591E0892781701B
:1006400080871186CF01DF91CF910895F8940E94A1
:10065000CF0483EC99E00197F1F700C0000063E05C
:100660008AE20E947E0460EB89E20E947E0465E0DB
:1006700088E20E947E0463E08BE20E947E0464E6CE
:1006800080E60E947E0460E680E70E947E0485B7D3
:10069000826085BF85B78E7F85BF8BB780648BBF37
:1006A000789464E08FE00E947E0489EF90E00197E7
:1006B000F1F700C0000008950F931F93CF938C01B2
:1006C000FC0180819181BC0176956795769567954F
:1006D00076956795C82FC295CC0FC07E81E30E94A6
:1006E0007E046C2F82E30E947E04F80162816F70A9
:1006F00085E30E947E04C0E009C0F801EC0FF11D03
:10070000638186E38C0F0E947E04CF5FF8018281B3
:10071000C81798F381E00E949A04CF911F910F911E
:1007200008951F920F920FB60F9211242F933F93AB
:100730004F935F936F937F938F939F93AF93BF93E9
:10074000EF93FF938CE20E9463048093CB01FF91AF
:10075000EF91BF91AF919F918F917F916F915F9139
:100760004F913F912F910F900FBE0F901F901895B2
:10077000EF92FF920F931F93CF938C018091CB0147
:100780001F928F9383E191E09F938F930E94120AAF
:100790008091CB010F900F900F900F9080FF39C088
:1007A00081E60E946304C82F82E60E9463042C2F16
:1007B00030E0220F331F220F331F220F331F829589
:1007C00086958770282BF8013183208385E60E9467
:1007D00063048F70F8018283C0E00BC0EC2EF12C13
:1007E00086E68C0F0E946304F801EE0DFF1D8383E3
:1007F000CF5FF8018281C81788F340E061E08CE2A6
:100800000E94AB048091CB018E7F8093CB01C1E02D
:1008100053C0C82FC27081FF39C081E70E946304B2
:10082000C82F82E70E9463042C2F30E0220F331F71
:10083000220F331F220F331F829586958770282B36
:10084000F8013183208385E70E9463048F70F801EB
:100850008283C0E00BC0EC2EF12C86E78C0F0E9447
:100860006304F801EE0DFF1D8383CF5FF8018281E1
:10087000C81788F340E062E08CE20E94AB048091EC
:10088000CB018D7F8093CB01C1E016C0833078F01F
:100890008DE20E9463041F928F938FE091E09F93FB
:1008A0008F930E94120A0F900F900F900F9040E0CC
:1008B00063E08CE20E94AB048C2FCF911F910F91CB
:1008C000FF90EF900895CF93C82F80E00E946909B0
:1008D00083E00E9497090E949B098C2F0E94970930
:1008E0000E949B0980E00E9497090E949B09C82FE3
:1008F00083E00E9469098C2FCF910895CF93DF93F5
:10090000D82FC62F80E00E94690982E00E949709D3
:100910000E949B098D2F0E9497090E949B098C2F92
:100920000E9497090E949B0983E00E946909DF9158
:10093000CF910895CF93C82F80E00E9469098C2F32
:10094000877080580E9497090E949B0983E00E944B
:100950006909CF9108951F93CF93DF93182FD62F56
:10096000C42F80E00E94690985E00E9497090E94D7
:100970009B09812F0E9497090E949B098D2F0E943D
:1009800097090E949B098C2F0E9497090E949B093E
:1009900083E00E946909DF91CF911F91089580E063
:1009A0000E94690980EC0E9497090E949B0983E0DC
:1009B0000E94690908950E9460090895CF93DF930A
:1009C000CDB7DEB72A970FB6F894DEBF0FBECDBF06
:1009D00081E00E94690984E00E9497090E949B09B6
:1009E00080E00E9497090E949B098E8380E00E940C
:1009F00097090E949B098F8380E00E9497090E94BB
:100A00009B09888782E00E9497090E949B0980E0E9
:100A10000E9497090E949B09898780E00E9497099C
:100A20000E949B098A8783E00E94690985E0FE0194
:100A30003696DE01119601900D928A95E1F7298193
:100A40003A814B815C816D8170E080E090E02A9674
:100A50000FB6F894DEBF0FBECDBFDF91CF910895E2
:100A6000CF93DF93D82FC62F81E00E94690985E0DC
:100A70000E9497090E949B098D2F0E9497090E944E
:100A80009B098C2F0E9497090E949B0983E00E947A
:100A90006909DF91CF910895CF93DF9300D000D003
:100AA0001F92CDB7DEB761FD08C062FD08C063FDCF
:100AB00008C064FF08C082E007C081E005C083E091
:100AC00003C080E001C084E00F900F900F900F9062
:100AD0000F90DF91CF910895CF93DF9300D000D096
:100AE0001F92CDB7DEB7862F81700F900F900F90B9
:100AF0000F900F90DF91CF9108950F931F93CF9395
:100B0000DF93CDB7DEB72A970FB6F894DEBF0FBEDE
:100B1000CDBFE8EBF1E02AE030E03183208393E0C1
:100B20009283438304838583CF010E945C032A96CA
:100B30000FB6F894DEBF0FBECDBFDF91CF911F91EE
:100B40000F910895CF93DF93CDB7DEB76B970FB6B4
:100B5000F894DEBF0FBECDBF60E875E280E090E0A4
:100B60000E94CA090E94E1090E94E3020E945907FB
:100B70000E94DB040E9410080E9426030E9478064F
:100B80000E9437080E941A0761E082E00E94300547
:100B900061E084E00E9430056894EE24E2F8F12CD4
:100BA000F11062C087E191E00E942F0A0E94DE04EA
:100BB000942F752F862F2F8B388F498F5A8F6B8FDD
:100BC000422F532F692F0E944C05182F4F89588DA3
:100BD000698D7A8D8B8D0E946C05082FE116B1F01E
:100BE000123049F48091CC01813029F41092CC016B
:100BF0000E941A070BC0133049F48091CC01811177
:100C000005C081E08093CC010E941A07002321F1E6
:100C10008091CC01811118C00E9437082FEF8FE717
:100C200091E0215080409040E1F700C000C084E096
:100C300090E09D878C8781E08E87CE010C960E9484
:100C40005C03FF24F39408C0813031F40E9437081C
:100C50000F2EF3E0FF2EF02D0E94320980E291E08A
:100C60000E942F0AE12E9CCF21E0F2122EC080E3D9
:100C700091E00E942F0ACE010C960E94F5020C858D
:100C80001D852E853F85488959896A897B898C898C
:100C90009D890E947D05CE0101960E94B80388239C
:100CA00009F47ECF89E391E00E942F0A89819A811D
:100CB000059709F075CF8AE491E00E942F0A0E94FF
:100CC00037086894FF24F1F86BCF82E0F81208C06F
:100CD00085E591E00E942F0A0E941A07F12C60CF4F
:100CE00093E0F9125DCF0E9444070E94320958CF69
:100CF0001092CC010895BF92CF92DF92EF92FF92B3
:100D00000F931F93CF93DF93E82EB62E80910001AF
:100D10000E94E4076C0100E010E029C0E6E1F0E089
:100D2000EC1BFD0B27E1209FC001219F900D11249A
:100D3000E80FF91FE059FF4F8491B8016E0D711D46
:100D40007695762F6627779567956C0D7D1D9E01AC
:100D50002B0D311D620F731F0E94E809219602C0FE
:100D6000C0E0D0E0C731D105CCF20F5F1F4F033098
:100D70001105B4F3F12CE701D695DC2FCC27D795DC
:100D8000C795CC0DDD1DCB0DD11DBE01625E7F4F21
:100D90008EE00E94E809BE01615E7F4F8FE10E94F4
:100DA000E809BE01605E7F4F8FE10E94E809BE0145
:100DB0006F5D7F4F8FE10E94E809BE016E5D7F4F3E
:100DC0008EE00E94E80900E010E027C087E1809FE4
:100DD000F001819FF00D1124EC0FFD1FE059FF4F32
:100DE0008491B8016E0D7F1D7695762F66277795D5
:100DF00067956C0D7D1D9E012B0D311D620F731FBC
:100E0000635D7F4F0E94E809219602C0C0E0D0E0F8
:100E1000C731D105DCF20F5F1F4F03301105B4F36A
:100E2000DF91CF911F910F91FF90EF90DF90CF90C6
:100E3000BF9008954DE551E060E080E00E94DB083E
:100E40004CE651E060E082E00E94850843E751E013
:100E500060E083E00E9485088091CC01811106C08A
:100E60004EE360E082E00E944E0807C0813029F422
:100E70004EE360E083E00E944E086CE185E00E9452
:100E80007B060E944808089544E751E060E080E056
:100E90000E94DB0840E851E060E082E00E948508A3
:100EA0004DE851E060E083E00E9485080E94480818
:100EB00008950E94600987B3826087BB82E00E9428
:100EC000690988B38D7F88BB8EEA0E9497090E94CA
:100ED0009B0981EA0E9497090E949B098AED0E9462
:100EE00097090E949B0982E10E9497090E949B0931
:100EF00088EC0E9497090E949B0988EA0E94970942
:100F00000E949B098FE30E9497090E949B0985ED2F
:100F10000E9497090E949B0980E80E9497090E94FD
:100F20009B0981E80E9497090E949B0980E50E9425
:100F300097090E949B0989ED0E9497090E949B09CD
:100F400081E20E9497090E949B0980E20E94970912
:100F50000E949B0982E00E9497090E949B098BEDE9
:100F60000E9497090E949B0984E30E9497090E94AE
:100F70009B0984EA0E9497090E949B0986EA0E94C5
:100F800097090E949B098FEA0E9497090E949B097A
:100F900083E00E9469090895EAE8F0E01082808108
:100FA000886080838FEF9BE2909387008093860018
:100FB00080818B7F8083808183608083EDE7F0E098
:100FC0008081806180830895811103C080E090E07A
:100FD000089580E094E008951F920F920FB60F924B
:100FE00011248F939F9381E08093C3018091C80166
:100FF000882379F0F8941092C801809100018093C1
:10100000C9019091000181E0911180E0809300017D
:1010100078949F918F910F900FBE0F901F9018950D
:10102000CF93DF930E9459070E94E109C0E0D0E00E
:1010300005C0BE0180E00E94E8092196C11588E044
:10104000D807B8F31092C90181E080930001109293
:10105000C8011092C7011092C6011092C5011092EA
:10106000C4010E94CC077894DF91CF910895CF936B
:10107000DF93C0E0D0E005C0BE0180E00E94E80937
:101080002196C11588E0D807B8F3DF91CF91089574
:10109000F89481E08093C80178940895EF92FF92CC
:1010A0000F931F93CF93DF93E82EF62E00EE040FDD
:1010B000809100010E94E407EC0110E01DC0802F28
:1010C00090E0612F70E0FC01EE0FFF1FEE0FFF1F9D
:1010D000E80FF91FE60FF71FEB54FF4F84916F0DD8
:1010E000711D9E0190E8E99E200D311D1124620FB3
:1010F000731F0E94E8091F5F153008F3DF91CF913D
:101100001F910F91FF90EF900895FF920F931F93FF
:10111000CF93DF93F82ED62F8A01C0E00AC08C2F20
:10112000880F8C0F682F660F6D0F8F2D0E944E0851
:10113000CF5FF801EC0FF11D40814111F0CFDF913D
:10114000CF911F910F91FF900895EF92FF920F930F
:101150001F93CF93DF93E82EF62E00EE040F8091BD
:1011600000010E94E407EC0110E01CC0E02FF0E059
:10117000612F70E0EE0FFF1FEE0FFF1FEE0FFF1F3E
:10118000E60FF71FE057FD4F84916F0D711D9E0113
:1011900090E8E99E200D311D1124620F731F0E94FB
:1011A000E8091F5F183010F3DF91CF911F910F9165
:1011B000FF90EF900895FF920F931F93CF93DF93CB
:1011C000F82ED62F8A01C0E00AC06C2F660F660F7A
:1011D000660F6C1B6D0F8F2D0E94A508CF5FF80165
:1011E000EC0FF11D40814111F0CFDF91CF911F91A4
:1011F0000F91FF900895CF93DF93D82FC62F88B318
:101200008D7F88BB82E00E9469098D2F8F70806B73
:101210000E9497090E949B098C2F8F700E9497094A
:101220000E949B098C2F82958F7080610E94970984
:101230000E949B0983E00E946909DF91CF91089584
:10124000CF93C82F82E00E94690988B3826088BB6F
:101250008C2F0E9497090E949B0983E00E946909D4
:10126000CF9108951F93CF93DF938091C301811194
:101270001DC022C060E0812F0E94FB08C0E0D0E0CA
:1012800010C08091C9010E94E40720E8129F800DE0
:10129000911D11248C0F9D1F0E94EC090E942009B2
:1012A0002196C038D10568F31F5F01C010E01830E7
:1012B00008F31092C30181E0DF91CF911F9108954F
:1012C00087B38C6B87BB87B38F7B87BB80E58DB97A
:1012D000089581110AC088B3877F88BB88B3846072
:1012E00088BB88B3806188BB0895813051F488B38E
:1012F0008F7E88BB88B3846088BB88B3886088BBD6
:101300000895823051F488B38B7F88BB88B388609E
:1013100088BB88B3806188BB089588B3886088BB28
:1013200088B3846088BB88B3806188BB08958FB917
:10133000779BFECF0895779BFECF8FB108951F92C4
:101340000F920FB60F9211248F938CB18093CD0121
:1013500081E08093CA018F910F900FBE0F901F9074
:1013600018955D9BFECF8CB90895CF93C82F8A3016
:1013700019F48DE00E94B1098C2F0E94B10980E020
:1013800090E0CF91089581E091E09093D101809316
:10139000D00108959B01AC0160E070EB84E090E027
:1013A0000E94F0092150310930BD29B988E98AB974
:1013B00086E880BD0E94C3098AE090E00E94280A66
:1013C000089585B7806885BF80B7886080BF08951D
:1013D000FB01FC5E808308959C5EFC018081089582
:1013E000A1E21A2EAA1BBB1BFD010DC0AA1FBB1F29
:1013F000EE1FFF1FA217B307E407F50720F0A21B9B
:10140000B30BE40BF50B661F771F881F991F1A9407
:1014100069F760957095809590959B01AC01BD0131
:10142000CF010895A0E0B0E0E8E1FAE00C94000DEF
:10143000AE014B5F5F4FFA0161917191AF018091F5
:10144000D0019091D1010E945F0AE2E00C941C0D42
:101450006091D0017091D1010E94560C08950F93B4
:101460001F93CF93DF93E091D001F091D1012381BD
:1014700021FF1BC08C01D0E0C0E0F80181918F01F9
:101480006091D0017091D101DB011896ED91FC9132
:101490001997882331F00995892B79F3DFEFCFEF86
:1014A000ECCF8AE00995892B19F08FEF9FEF02C0EE
:1014B0008D2F9C2FDF91CF911F910F910895ABE05D
:1014C000B0E0E5E6FAE00C94F00C6C017B018A01D7
:1014D000FC0117821682838181FFCCC1CE01019667
:1014E0003C01F6019381F70193FD859193FF819172
:1014F0007F01882309F4BAC1853239F493FD8591BF
:1015000093FF81917F01853229F4B60190E00E941A
:10151000560CE7CF912C212C312CFFE1F315D8F09C
:101520008B3279F038F4803279F08332A1F4232DB4
:1015300020611DC08D3261F0803369F4232D21605C
:1015400016C0832D8260382EE32DE4603E2E2AC023
:10155000F32DF8601DC037FC2DC020ED280F2A3078
:1015600040F08E32B9F436FC81C1232D2064322E36
:1015700019C036FE06C08AE0989E200D1124922ED6
:1015800011C0EAE02E9E200D1124222EF32DF062D0
:101590003F2E08C08C3621F4832D8068382E02C07F
:1015A000883641F4F70193FD859193FF81917F0186
:1015B0008111B3CF982F9F7D9554933028F40C5F01
:1015C0001F4F9FE399830DC0833631F0833771F04D
:1015D000833509F059C021C0F801808189830E5FED
:1015E0001F4F88248394912C530113C02801F2E0EB
:1015F0004F0E511CF801A080B18036FE03C0692D4A
:1016000070E002C06FEF7FEFC5010E944B0C4C01F0
:101610008201F32DFF773F2E16C0280122E0420EF3
:10162000511CF801A080B18036FE03C0692D70E026
:1016300002C06FEF7FEFC5010E94400C4C01F32DFB
:10164000F0683F2E820133FC1BC0822D90E088168B
:101650009906B0F4B60180E290E00E94560C2A94FC
:10166000F4CFF50137FC859137FE81915F01B6011A
:1016700090E00E94560C21102A9421E0821A9108D1
:101680008114910471F7E8C0843611F0893641F570
:10169000F80137FE07C060817181828193810C5F00
:1016A0001F4F08C060817181072E000C880B990BB9
:1016B0000E5F1F4FF32DFF763F2E97FF09C09095C9
:1016C0008095709561957F4F8F4F9F4FF0683F2EAB
:1016D0002AE030E0A3010E94920C882E861845C0B3
:1016E000853731F4232D2F7EB22E2AE030E025C03D
:1016F000932D997FB92E8F36C1F018F4883579F083
:10170000B5C0803719F0883721F0B0C0E92FE0610B
:10171000BE2EB4FE0DC0FB2DF460BF2E09C034FEFA
:101720000AC0292F2660B22E06C028E030E005C08E
:1017300020E130E002C020E132E0F801B7FE07C04E
:1017400060817181828193810C5F1F4F06C060812F
:10175000718180E090E00E5F1F4FA3010E94920C08
:10176000882E8618FB2DFF773F2E36FE0DC0232DC9
:101770002E7FA22E891458F434FE0BC032FC09C00F
:10178000832D8E7EA82E05C0B82CA32C03C0B82CA8
:1017900001C0B92CA4FE0FC0FE01E80DF11D80812F
:1017A000803321F49A2D997EA92E09C0A2FE06C08D
:1017B000B394B39404C08A2D867809F0B394A3FC43
:1017C00011C0A0FE06C0B21488F4280C922C9B18FD
:1017D0000EC0B21460F4B60180E290E00E94560C94
:1017E000B394F7CFB21418F42B1802C0982C212C04
:1017F000A4FE10C0B60180E390E00E94560CA2FE49
:1018000017C0A1FC03C088E790E002C088E590E023
:10181000B6010CC08A2D867859F0A1FE02C08BE279
:1018200001C080E2A7FC8DE2B60190E00E94560C58
:10183000891438F4B60180E390E00E94560C9A9423
:10184000F7CF8A94F301E80DF11D8081B60190E095
:101850000E94560C8110F5CF222009F442CEB60129
:1018600080E290E00E94560C2A94F6CFF601868121
:10187000978102C08FEF9FEF2B96E2E10C940C0D45
:10188000FC010590615070400110D8F7809590954B
:101890008E0F9F1F0895FC01615070400190011050
:1018A000D8F7809590958E0F9F1F08950F931F93E3
:1018B000CF93DF93FB01238121FD03C08FEF9FEFC7
:1018C0002CC022FF16C046815781248135814217E2
:1018D000530744F4A081B1819D012F5F3F4F3183B5
:1018E00020838C93268137812F5F3F4F3783268358
:1018F00014C08B01EC01FB010084F185E02D0995FA
:10190000892BE1F6D80116968D919C911797019637
:1019100017969C938E931697CE01DF91CF911F91CE
:101920000F910895FA01AA27283051F1203181F151
:10193000E8946F936E7F6E5F7F4F8F4F9F4FAF4FD7
:10194000B1E03ED0B4E03CD0670F781F891F9A1FEA
:10195000A11D680F791F8A1F911DA11D6A0F711D9E
:10196000811D911DA11D20D009F468943F912AE0AA
:10197000269F11243019305D3193DEF6CF01089592
:10198000462F4770405D4193B3E00FD0C9F7F6CFC3
:10199000462F4F70405D4A3318F0495D31FD40528B
:1019A000419302D0A9F7EACFB4E0A6959795879521
:1019B00077956795BA95C9F7009761057105089500
:1019C0009B01AC010A2E06945795479537952795AC
:1019D000BA95C9F7620F731F841F951FA01D089544
:1019E0002F923F924F925F926F927F928F929F922F
:1019F000AF92BF92CF92DF92EF92FF920F931F931D
:101A0000CF93DF93CDB7DEB7CA1BDB0B0FB6F894CD
:101A1000DEBF0FBECDBF09942A88398848885F840D
:101A20006E847D848C849B84AA84B984C884DF807E
:101A3000EE80FD800C811B81AA81B981CE0FD11D62
:101A40000FB6F894DEBF0FBECDBFED010895F89438
:021A5000FFCFC6
:101A5200010000000200000000B50900000000655E
:101A620072723D25640A00696E20686F6D650D0013
:101A720073637265656E20757064617465640D00D0
:101A8200706C6179696E670D006D6573736167656E
:101A92002072656365697665640067616D65206FB4
:101AA2007665720D00736176696E670D004D656E25
:101AB200752050696E672D506F6E670020537461F8
:101AC200727400204C6561646572626F61726400B9
:101AD2004A6520742761696D65203C330031737457
:101AE2003A204D617263206C65206267207C20532E
:0E1AF200636F72653A20696E66696E69000066
:00000001FF
