:100000000C9438000C9455000C9455000C94550039
:100010000C9455000C9455000C9455000C9455000C
:100020000C9455000C9455000C9455000C945500FC
:100030000C9455000C9455000C9455000C945500EC
:100040000C9455000C9455000C9455000C945B00D6
:100050000C9455000C9455000C9455000C945500CC
:100060000C9455000C9455000C9455000C945500BC
:1000700011241FBECFEFD4E0DEBFCDBF11E0A0E062
:10008000B1E0EEEDF0E002C005900D92A030B107B6
:10009000D9F721E0A0E0B1E001C01D92A230B20783
:1000A000E1F70E9457000C946D000C94000085E568
:1000B00080930200FCCF1F920F920FB60F92112473
:1000C0008F938CB18093010181E0809300018F9127
:0E00D0000F900FBE0F901F901895F894FFCF61
:00000001FF
