:100000000C94C4020C9491030C94E1020C94E10250
:100010000C94E1020C94E1020C94E1020C94BD09F1
:100020000C94E1020C94E1020C94E1020C94E102C4
:100030000C94E1020C94E1020C94E1020C94E102B4
:100040000C94E1020C94E1020C94E1020C94950BE7
:100050000C94E1020C94E1020C94E1020C94E10294
:100060000C94E1020C94E1020C94E1020C94E10284
:10007000008040201008080804040408081060806C
:10008000000000000000001C638000000000000071
:1000900000008040201009FE000000000000000069
:1000A00000010102020404060504040404081122EC
:1000B0004488502000000000000000005F000000A5
:1000C00007000700147F147F14242A7F2A122313A9
:1000D00008646236495522500005030000001C22C6
:1000E00041000041221C00082A1C2A0808083E087A
:1000F0000800503000000808080808006060000090
:1001000020100804023E5149453E00427F40004213
:10011000615149462141454B311814127F10274542
:100120004545393C4A494930017109050336494979
:100130004936064949291E00363600000056360069
:10014000000008142241141414141441221408004D
:100150000201510906324979413E7E1111117E7F1B
:10016000494949363E414141227F4141221C7F4954
:100170004949417F090901013E414151327F080847
:10018000087F00417F41002040413F017F08142249
:10019000417F404040407F0204027F7F0408107F7F
:1001A0003E4141413E7F090909063E4151215E7FA2
:1001B00009192946464949493101017F01013F405A
:1001C00040403F1F2040201F7F2018207F631408DD
:1001D00014630304780403615149454300007F41DF
:1001E00041020408102041417F0000040201020482
:1001F0004040404040000102040020545454787FA5
:10020000484444383844444420384444487F3854AF
:10021000545418087E090102081454543C7F080401
:10022000047800447D40002040443D00007F1028B9
:100230004400417F40007C041804787C0804047862
:1002400038444444387C14141408081414187C7C72
:10025000080404084854545420043F4440203C40BF
:1002600040207C1C2040201C3C4030403C44281056
:1002700028440C5050503C4464544C4400083641CF
:100280000000007F00000041360800020103020167
:10029000000000000000000000065F5F0600000094
:1002A0000007070007070000147F7F147F7F1400FA
:1002B000242E6B6B3A120000466630180C66620002
:1002C000307A4F5D377A48000407030000000000D1
:1002D000001C3E63410000000041633E1C00000022
:1002E000082A3E1C1C3E2A0808083E3E080800005A
:1002F00000A0E060000000000808080808080000EE
:1003000000006060000000006030180C060301006F
:100310003E7F594D7F3E000042427F7F40400000BB
:10032000627359496F660000226349497F360000B5
:10033000181C16137F7F1000276745457D39000084
:100340003C7E4B4979300000036371190F070000B0
:10035000367F49497F360000064F49693F1E00003D
:1003600000006C6C0000000000A0EC6C00000000BD
:10037000081C366341000000141414141414000007
:10038000004163361C080000020351590F060000AB
:100390003E7F415D5D1F1E007C7E13137E7C00004E
:1003A000417F7F49497F36001C3E63414163220003
:1003B000417F7F41637F1C00417F7F495D41630036
:1003C000417F7F491D0103001C3E63415173720050
:1003D0007F7F08087F7F000000417F7F4100000091
:1003E000307040417F3F0100417F7F081C776300F0
:1003F000417F7F41406070007F7F060C067F7F0059
:100400007F7F060C187F7F001C3E6341633E1C000B
:10041000417F7F49090F06001E3F21717F5E00006A
:10042000417F7F19396F460026674D597B320000A6
:1004300003417F7F410300007F7F40407F7F0000BA
:100440001F3F60603F1F00007F7F3018307F7F00BC
:1004500063771C081C776300074F78784F0700000C
:100460006773594D47637100007F7F414100000071
:100470000103060C183060000041417F7F0000003E
:10048000080C0603060C0800808080808080808035
:100490000000030704000000207454543C7840001E
:1004A000413F7F44447C3800387C44446C28000041
:1004B000307848493F7F4000387C54545C18000035
:1004C000487E7F490302000098BCA4A4F87C040085
:1004D000417F7F08047C780000447D7D400000005F
:1004E00040C484FD7D000000417F7F10386C4400D3
:1004F00000417F7F400000007C7C0C180C7C780061
:100500007C7C04047C780000387C44447C38000007
:1005100084FCF8A4243C1800183C24A4F8FC8400B3
:10052000447C78441C180000485C54547424000037
:1005300000043E7F442400003C7C40403C7C400062
:100540001C3C60603C1C00003C7C6030607C3C00DB
:10055000446C3810386C44009CBCA0A0FC7C0000AB
:100560004C64745C4C64000008083E774141000014
:1005700000000077770000004141773E0808000046
:10058000020301030203010011241FBECFEFD4E0D8
:10059000DEBFCDBF11E0A0E0B1E0E2E8FEE102C0C5
:1005A00005900D92A438B107D9F721E0A4E8B1E095
:1005B00001C01D92AB3AB207E1F70E9493050C947B
:1005C0003F0F0C94000081B3806281BB81B3877FB1
:1005D00081BB89E08EBD80E48FBD82E090E09BBD51
:1005E0008ABD81B38F7E81BB0895CF93DF93FC01D9
:1005F0001092001000C0849BFECFA0E0B0E18C916F
:10060000C4E8D1E02881398190E0821B930B91836B
:1006100080838C912A813B8190E0821B930B938392
:1006200082838C9190E0958384838C9190E0978372
:10063000868380B386958695869591E0892781701B
:1006400080871186CF01DF91CF910895F8940E94A1
:10065000C00483EC99E00197F1F700C0000063E06B
:100660008AE20E946F0460EB89E20E946F0465E0F9
:1006700088E20E946F0463E08BE20E946F0464E6EC
:1006800080E60E946F0460E680E70E946F0485B7F1
:10069000826085BF85B78E7F85BF8BB780648BBF37
:1006A000789464E08FE00E946F0489EF90E00197F6
:1006B000F1F700C0000008950F931F93CF938C01B2
:1006C000FC0180819181BC0176956795769567954F
:1006D00076956795C82FC295CC0FC07E81E30E94A6
:1006E0006F046C2F82E30E946F04F80162816F70C7
:1006F00085E30E946F04C0E009C0F801EC0FF11D12
:10070000638186E38C0F0E946F04CF5FF8018281C2
:10071000C81798F381E00E948B04CF911F910F912D
:1007200008951F920F920FB60F9211242F933F93AB
:100730004F935F936F937F938F939F93AF93BF93E9
:10074000EF93FF938CE20E9454048093A101FF91E8
:10075000EF91BF91AF919F918F917F916F915F9139
:100760004F913F912F910F900FBE0F901F901895B2
:10077000EF92FF920F931F93CF938C018091A10171
:1007800080FF39C081E60E945404C82F82E60E948F
:1007900054042C2F30E0220F331F220F331F220F5F
:1007A000331F829586958770282BF801318320832B
:1007B00085E60E9454048F70F8018283C0E00BC06C
:1007C000EC2EF12C86E68C0F0E945404F801EE0DFD
:1007D000FF1D8383CF5FF8018281C81788F340E053
:1007E00061E08CE20E949C048091A1018E7F809345
:1007F000A101C1E052C0C82FC27081FF39C081E79A
:100800000E945404C82F82E70E9454042C2F30E029
:10081000220F331F220F331F220F331F829586951D
:100820008770282BF8013183208385E70E945404C8
:100830008F70F8018283C0E00BC0EC2EF12C86E7AC
:100840008C0F0E945404F801EE0DFF1D8383CF5FCF
:10085000F8018281C81788F340E062E08CE20E94D0
:100860009C048091A1018D7F8093A101C1E015C0FE
:10087000833078F08DE20E9454041F928F938FE0B2
:1008800091E09F938F930E94080C0F900F900F9010
:100890000F9060E08CE20E946F048C2FCF911F912B
:1008A0000F91FF90EF900895CF93C82F80E00E94A2
:1008B0003A0B83E00E94680B0E947B0B8C2F0E94F6
:1008C000680B0E947B0B80E00E94680B0E947B0BF0
:1008D000C82F83E00E943A0B8C2FCF910895CF93BD
:1008E000DF93D82FC62F80E00E943A0B82E00E944F
:1008F000680B0E947B0B8D2F0E94680B0E947B0B64
:100900008C2F0E94680B0E947B0B83E00E943A0BA5
:10091000DF91CF910895CF93C82F80E00E943A0BCA
:100920008C2F877080580E94680B0E947B0B83E09D
:100930000E943A0BCF9108951F93CF93DF93182F06
:10094000D62FC42F80E00E943A0B85E00E94680BEE
:100950000E947B0B812F0E94680B0E947B0B8D2FC6
:100960000E94680B0E947B0B8C2F0E94680B0E94D8
:100970007B0B83E00E943A0BDF91CF911F9108958A
:1009800080E00E943A0B80EC0E94680B0E947B0B77
:1009900083E00E943A0B08950E94310B0895CF9393
:1009A000DF93CDB7DEB72A970FB6F894DEBF0FBE40
:1009B000CDBF81E00E943A0B84E00E94680B0E9448
:1009C0007B0B80E00E94680B0E947B0B8E8380E093
:1009D0000E94680B0E947B0B8F8380E00E94680B53
:1009E0000E947B0B888782E00E94680B0E947B0B31
:1009F00080E00E94680B0E947B0B898780E00E9448
:100A0000680B0E947B0B8A8783E00E943A0B85E08B
:100A1000FE013696DE01119601900D928A95E1F75E
:100A200029813A814B815C816D8170E080E090E0AA
:100A30002A960FB6F894DEBF0FBECDBFDF91CF91DF
:100A40000895CF93DF93D82FC62F81E00E943A0BF1
:100A500085E00E94680B0E947B0B8D2F0E94680B23
:100A60000E947B0B8C2F0E94680B0E947B0B83E003
:100A70000E943A0BDF91CF910895CF93DF9300D07E
:100A800000D01F92CDB7DEB761FD08C062FD08C07F
:100A900063FD08C064FF08C082E007C081E005C0B4
:100AA00083E003C080E001C084E00F900F900F90BE
:100AB0000F900F90DF91CF910895CF93DF9300D0E7
:100AC00000D01F92CDB7DEB7862F81700F900F90A8
:100AD0000F900F900F90DF91CF9108950F931F9378
:100AE000CF93DF93CDB7DEB72A970FB6F894DEBF6A
:100AF0000FBECDBFEEE8F1E02AE030E03183208385
:100B000093E09283438304838583CF010E945C0337
:100B10002A960FB6F894DEBF0FBECDBFDF91CF91FE
:100B20001F910F910895CF93DF93CDB7DEB7A397B1
:100B30000FB6F894DEBF0FBECDBF60E875E280E06F
:100B400090E00E94C00B0E94D70B0E94E3020E941B
:100B50002A090E94CC040E94E1090E9426030E94F7
:100B600002070E94080A0E94D30761E082E00E9407
:100B7000210561E084E00E94210581E48C878D8756
:100B80008E87E12C6894DD24D2F8F12CF11054C04A
:100B90000E94CF04942F752F862F2A8F3B8F4C8F66
:100BA0005D8F6E8F422F532F692F0E943D05182FA6
:100BB0004A8D5B8D6C8D7D8D8E8D0E945D05082F1D
:100BC000D116B1F0123049F48091A301813029F49B
:100BD0001092A3010E94D3070BC0133049F48091F7
:100BE000A301811105C081E08093A3010E94D30776
:100BF0000023E9F0E016D9F08091A30181110FC024
:100C00000E94080A84E090E0988B8F8781E0898BAE
:100C1000CE010F960E945C03FF24F39408C081303C
:100C200031F40E94080A0F2EF3E0FF2EF02D0E94EF
:100C3000030BE02ED12EAACF81E0F81246C0CE01E0
:100C40004A960E94F5020A8D1B8D2C8D3D8D4E8D8E
:100C50005F8D68A179A18AA19BA10E946E058FEF8B
:100C60009FE50197F1F700C00000CE0101960E94B8
:100C7000B803882309F48ACF89819A818530910548
:100C8000D9F487E191E00E94250CCC800E94080AEB
:100C90002C2D41E461E481E40E94C60883E090E0E9
:100CA000988B8F8781E0898BCE010F960E945C0321
:100CB0006894FF24F1F86ACF0F9709F067CF8C8111
:100CC0000E948E080E94030B61CF92E0F91276C059
:100CD0000E94CF04942F752F862F2F87388B498B36
:100CE0005A8B6B8B422F532F692F0E943D05182F73
:100CF0004F85588969897A898B890E945D05082FFB
:100D00008823C1F0E816B1F08091A2018F5F809333
:100D1000A2012C2D4E856D858C850E94C608809180
:100D2000A201833038F00E94080A0E94D307109273
:100D3000A201F12CD116E9F11230E9F48091A2015F
:100D400090E0ECE0F0E0EC0FFD1FE80FF91F2081D0
:100D500021502083213440F4ECE0F0E0EC0FFD1F43
:100D6000E80FF91F2AE520832C2D4E856D858C8593
:100D70000E94C6081EC01330E1F48091A20190E0E9
:100D8000ECE0F0E0EC0FFD1FE80FF91F20812F5F72
:100D900020832B3540F0ECE0F0E0EC0FFD1FE80F76
:100DA000F91F21E420832C2D4E856D858C850E94B2
:100DB000C6080E94030BE02ED12EE8CE83E0F81285
:100DC000E5CE0E94FD070E94030B8823E1F30E94F9
:100DD000CF04942F752F862F2F87388B498B5A8BF2
:100DE0006B8B422F532F692F0E945D05882341F0A2
:100DF000E81631F00E94080A0E94D307F12CC6CEF3
:100E0000E82EE5CF1092A3011092A20160E078E0F5
:100E100082E00E94DE0B61E078E081E40E94DE0B5C
:100E200062E078E082E40E94DE0B63E078E083E435
:100E30000E94DE0B64E078E086E10E94DE0B65E054
:100E400078E084E40E94DE0B66E078E085E40E94AE
:100E5000DE0B67E078E086E40E94DE0B68E078E075
:100E600083E60E94DE0B0895BF92CF92DF92EF924D
:100E7000FF920F931F93CF93DF93E82EB62E8091AE
:100E800000010E94B5096C0100E010E029C0E6E114
:100E9000F0E0EC1BFD0B27E1209FC001219F900D8E
:100EA0001124E80FF91FE059FF4F8491B8016E0D2E
:100EB000711D7695762F6627779567956C0D7D1D4C
:100EC0009E012B0D311D620F731F0E94DE0B2196B8
:100ED00002C0C0E0D0E0C731D105CCF20F5F1F4F98
:100EE00003301105B4F3F12CE701D695DC2FCC27A4
:100EF000D795C795CC0DDD1DCB0DD11DBE01625E12
:100F00007F4F8EE00E94DE0BBE01615E7F4F8FE15E
:100F10000E94DE0BBE01605E7F4F8FE10E94DE0B00
:100F2000BE016F5D7F4F8FE10E94DE0BBE016E5DE3
:100F30007F4F8EE00E94DE0B00E010E027C087E1CB
:100F4000809FF001819FF00D1124EC0FFD1FE059EF
:100F5000FF4F8491B8016E0D7F1D7695762F662721
:100F6000779567956C0D7D1D9E012B0D311D620FD0
:100F7000731F635D7F4F0E94DE0B219602C0C0E0AD
:100F8000D0E0C731D105DCF20F5F1F4F03301105F0
:100F9000B4F3DF91CF911F910F91FF90EF90DF900D
:100FA000CF90BF90089542E251E060E080E00E945F
:100FB000AC0A41E351E060E082E00E94560A48E357
:100FC00051E060E083E00E94560A8091A301811104
:100FD00006C04EE360E082E00E941F0A07C0813035
:100FE00029F44EE360E083E00E941F0A6CE185E093
:100FF0000E9434070E94190A0895DF92EF92FF922F
:101000000F931F93CF93DF9300D000D0CDB7DEB7FF
:1010100049E351E060E080E00E94AC0A80E098E0A3
:101020000E94E20BD82E1F928F9385E491E09F934C
:101030008F930E94080C0F900F900F900F9086E0F6
:101040008D1520F40F2EF6E0DF2EF02D1F92DF928B
:1010500085E491E09F938F930E94080C0F900F906E
:101060000F900F90E12C49C00E2D10E0000F111FC2
:10107000000F111F0F5F174FC8010E94E20B689409
:10108000FF24F1F8FE0C482F60E08F2D0E941F0A0C
:10109000C80101960E94E20B482F66E08F2D0E9446
:1010A0001F0AC80102960E94E20B482F6CE08F2DA8
:1010B0000E941F0A46E651E062E18F2D0E94560A07
:1010C000C80103960E94E20B1F928F938FE491E078
:1010D0009F938F938E010F5F1F4F1F930F930E945B
:1010E000550CA8016AE18F2D0E94560AE3940F90D7
:1010F0000F900F900F900F900F90ED1408F4B4CF55
:101100000E94190A0F900F900F900F90DF91CF91CE
:101110001F910F91FF90EF90DF9008950F931F9311
:10112000CF93DF9300D000D0CDB7DEB7182F42E5C4
:1011300051E060E080E00E94AC0A41E651E064E1E9
:1011400083E00E94560A1F921F938FE491E09F93C1
:101150008F938E010F5F1F4F1F930F930E94550CAB
:10116000A80161E483E00E94560A0E94190A0F90C8
:101170000F900F900F900F900F900F900F900F9077
:101180000F90DF91CF911F910F910895EF92FF92F1
:101190000F931F93CF93DF9300D000D0CDB7DEB76E
:1011A000E82EF62E042F122F48E651E060E080E092
:1011B0000E94AC0A4E2D60E082E00E941F0A4F2D73
:1011C00066E082E00E941F0A402F6CE082E00E94ED
:1011D0001F0A1F921F938FE491E09F938F938E01BC
:1011E0000F5F1F4F1F930F930E94550CA80168E1DA
:1011F00082E00E94560A8091A2010F900F900F90FA
:101200000F900F900F90811107C048E751E060E008
:1012100083E00E94560A11C0813039F44CE751E056
:1012200060E083E00E94560A08C0823031F440E852
:1012300051E060E083E00E94560A0E94190A0F9074
:101240000F900F900F90DF91CF911F910F91FF9012
:10125000EF9008950E94310B87B3826087BB82E0D4
:101260000E943A0B88B38D7F88BB8EEA0E94680B80
:101270000E947B0B81EA0E94680B0E947B0B8AED27
:101280000E94680B0E947B0B82E10E94680B0E9407
:101290007B0B88EC0E94680B0E947B0B88EA0E9403
:1012A000680B0E947B0B8FE30E94680B0E947B0BF4
:1012B00085ED0E94680B0E947B0B80E80E94680B02
:1012C0000E947B0B81E80E94680B0E947B0B80E5EB
:1012D0000E94680B0E947B0B89ED0E94680B0E94A4
:1012E0007B0B81E20E94680B0E947B0B80E20E94D4
:1012F000680B0E947B0B82E00E94680B0E947B0BB4
:101300008BED0E94680B0E947B0B84E30E94680BAC
:101310000E947B0B84EA0E94680B0E947B0B86EA8A
:101320000E94680B0E947B0B8FEA0E94680B0E9450
:101330007B0B83E00E943A0B0895EAE8F0E010820C
:101340008081886080838FEF9BE2909387008093F9
:10135000860080818B7F8083808183608083EDE73E
:10136000F0E08081806180830895811103C080E076
:1013700090E0089580E094E008951F920F920FB6D8
:101380000F9211248F939F9381E080939901809114
:101390009E01882379F0F89410929E0180910001BB
:1013A00080939F019091000181E0911180E08093F2
:1013B000000178949F918F910F900FBE0F901F9016
:1013C0001895CF93DF930E942A090E94D70BC0E0A3
:1013D000D0E005C0BE0180E00E94DE0B2196C11561
:1013E00088E0D807B8F310929F0181E08093000154
:1013F00010929E0110929D0110929C0110929B01EF
:1014000010929A010E949D097894DF91CF910895DE
:10141000CF93DF93C0E0D0E005C0BE0180E00E9422
:10142000DE0B2196C11588E0D807B8F3DF91CF9184
:101430000895F89481E080939E0178940895EF9246
:10144000FF920F931F93CF93DF93E82EF62E00EEBB
:10145000040F809100010E94B509EC0110E01DC04D
:10146000802F90E0612F70E0FC01EE0FFF1FEE0F68
:10147000FF1FE80FF91FE60FF71FEB54FF4F849192
:101480006F0D711D9E0190E8E99E200D311D112404
:10149000620F731F0E94DE0B1F5F153008F3DF9190
:1014A000CF911F910F91FF90EF900895FF920F93AE
:1014B0001F93CF93DF93F82ED62F8A01C0E00AC086
:1014C0008C2F880F8C0F682F660F6D0F8F2D0E9449
:1014D0001F0ACF5FF801EC0FF11D40814111F0CFE1
:1014E000DF91CF911F910F91FF900895EF92FF929E
:1014F0000F931F93CF93DF93E82EF62E00EE040F89
:10150000809100010E94B509EC0110E01CC0E02FA1
:10151000F0E0612F70E0EE0FFF1FEE0FFF1FEE0FE8
:10152000FF1FE60FF71FE057FD4F84916F0D711DF0
:101530009E0190E8E99E200D311D1124620F731F5A
:101540000E94DE0B1F5F183010F3DF91CF911F91C7
:101550000F91FF90EF900895FF920F931F93CF93F9
:10156000DF93F82ED62F8A01C0E00AC06C2F660FD9
:10157000660F660F6C1B6D0F8F2D0E94760ACF5F72
:10158000F801EC0FF11D40814111F0CFDF91CF91B7
:101590001F910F91FF900895CF93DF93D82FC62FFF
:1015A00088B38D7F88BB82E00E943A0B8D2F8F70AD
:1015B000806B0E94680B0E947B0B8C2F8F700E94A7
:1015C000680B0E947B0B8C2F82958F7080610E942C
:1015D000680B0E947B0B83E00E943A0BDF91CF9156
:1015E0000895CF93C82F82E00E943A0B88B382609F
:1015F00088BB8C2F0E94680B0E947B0B83E00E94AB
:101600003A0BCF9108951F93CF93DF938091990167
:1016100081111DC022C060E0812F0E94CC0AC0E071
:10162000D0E010C080919F010E94B50920E8129F70
:10163000800D911D11248C0F9D1F0E94E20B0E94B2
:10164000F10A2196C038D10568F31F5F01C010E090
:10165000183008F31092990181E0DF91CF911F912A
:10166000089587B38C6B87BB87B38F7B87BB80E57F
:101670008DB9089581110AC088B3877F88BB88B36C
:10168000846088BB88B3806188BB0895813051F441
:1016900088B38F7E88BB88B3846088BB88B388603A
:1016A00088BB0895823051F488B38B7F88BB88B3A0
:1016B000886088BB88B3806188BB089588B38860E0
:1016C00088BB88B3846088BB88B3806188BB089579
:1016D0008FB980E090E0DC0103C00196A11DB11D2F
:1016E000779908C0811521EE920725EFA20725E022
:1016F000B20798F3089580E090E0DC0103C0019602
:10170000A11DB11D779908C0811521EE920725EF23
:10171000A20725E0B20798F380349244AF40B105A8
:1017200010F48FB1089580E008951F920F920FB6C4
:101730000F9211248F938CB18093A40181E0809348
:10174000A0018F910F900FBE0F901F9018955D9B79
:10175000FECF8CB90895CF93C82F8A3019F48DE04D
:101760000E94A70B8C2F0E94A70B80E090E0CF91E6
:10177000089581E091E09093A8018093A7010895D6
:101780009B01AC0160E070EB84E090E00E94E60B0E
:101790002150310930BD29B988E98AB986E880BD70
:1017A0000E94B90B8AE090E00E941E0C089585B754
:1017B000806885BF80B7886080BF0895FB01FC5EAC
:1017C000808308959C5EFC0180810895A1E21A2E19
:1017D000AA1BBB1BFD010DC0AA1FBB1FEE1FFF1FD5
:1017E000A217B307E407F50720F0A21BB30BE40B25
:1017F000F50B661F771F881F991F1A9469F760956C
:101800007095809590959B01AC01BD01CF01089525
:10181000A0E0B0E0EEE0FCE00C94180FAE014B5FEE
:101820005F4FFA0161917191AF018091A701909191
:10183000A8010E94770CE2E00C94340F6091A7019C
:101840007091A8010E946E0E08950F931F93CF937D
:10185000DF93E091A701F091A801238121FF1BC034
:101860008C01D0E0C0E0F80181918F016091A70167
:101870007091A801DB011896ED91FC9119978823CE
:1018800031F00995892B79F3DFEFCFEFECCF8AE0C8
:101890000995892B19F08FEF9FEF02C08D2F9C2F98
:1018A000DF91CF911F910F910895AEE0B0E0EBE58D
:1018B000FCE00C94160F0D891E8986E08C831A8338
:1018C00009838FEF9FE79E838D83AE01475E5F4F55
:1018D0006F89788DCE0101960E94770CEF81F88593
:1018E000E00FF11F10822E96E4E00C94320FABE073
:1018F000B0E0EDE7FCE00C94080F6C017B018A017D
:10190000FC0117821682838181FFCCC1CE01019632
:101910003C01F6019381F70193FD859193FF81913D
:101920007F01882309F4BAC1853239F493FD85918A
:1019300093FF81917F01853229F4B60190E00E94E6
:101940006E0EE7CF912C212C312CFFE1F315D8F04E
:101950008B3279F038F4803279F08332A1F4232D80
:1019600020611DC08D3261F0803369F4232D216028
:1019700016C0832D8260382EE32DE4603E2E2AC0EF
:10198000F32DF8601DC037FC2DC020ED280F2A3044
:1019900040F08E32B9F436FC81C1232D2064322E02
:1019A00019C036FE06C08AE0989E200D1124922EA2
:1019B00011C0EAE02E9E200D1124222EF32DF0629C
:1019C0003F2E08C08C3621F4832D8068382E02C04B
:1019D000883641F4F70193FD859193FF81917F0152
:1019E0008111B3CF982F9F7D9554933028F40C5FCD
:1019F0001F4F9FE399830DC0833631F0833771F019
:101A0000833509F059C021C0F801808189830E5FB8
:101A10001F4F88248394912C530113C02801F2E0B6
:101A20004F0E511CF801A080B18036FE03C0692D15
:101A300070E002C06FEF7FEFC5010E94630E4C01A2
:101A40008201F32DFF773F2E16C0280122E0420EBF
:101A5000511CF801A080B18036FE03C0692D70E0F2
:101A600002C06FEF7FEFC5010E94580E4C01F32DAD
:101A7000F0683F2E820133FC1BC0822D90E0881657
:101A80009906B0F4B60180E290E00E946E0E2A94AE
:101A9000F4CFF50137FC859137FE81915F01B601E6
:101AA00090E00E946E0E21102A9421E0821A910883
:101AB0008114910471F7E8C0843611F0893641F53C
:101AC000F80137FE07C060817181828193810C5FCC
:101AD0001F4F08C060817181072E000C880B990B85
:101AE0000E5F1F4FF32DFF763F2E97FF09C0909595
:101AF0008095709561957F4F8F4F9F4FF0683F2E77
:101B00002AE030E0A3010E94AA0E882E861845C064
:101B1000853731F4232D2F7EB22E2AE030E025C008
:101B2000932D997FB92E8F36C1F018F4883579F04E
:101B3000B5C0803719F0883721F0B0C0E92FE061D7
:101B4000BE2EB4FE0DC0FB2DF460BF2E09C034FEC6
:101B50000AC0292F2660B22E06C028E030E005C05A
:101B600020E130E002C020E132E0F801B7FE07C01A
:101B700060817181828193810C5F1F4F06C06081FB
:101B8000718180E090E00E5F1F4FA3010E94AA0EBA
:101B9000882E8618FB2DFF773F2E36FE0DC0232D95
:101BA0002E7FA22E891458F434FE0BC032FC09C0DB
:101BB000832D8E7EA82E05C0B82CA32C03C0B82C74
:101BC00001C0B92CA4FE0FC0FE01E80DF11D8081FB
:101BD000803321F49A2D997EA92E09C0A2FE06C059
:101BE000B394B39404C08A2D867809F0B394A3FC0F
:101BF00011C0A0FE06C0B21488F4280C922C9B18C9
:101C00000EC0B21460F4B60180E290E00E946E0E45
:101C1000B394F7CFB21418F42B1802C0982C212CCF
:101C2000A4FE10C0B60180E390E00E946E0EA2FEFA
:101C300017C0A1FC03C088E790E002C088E590E0EF
:101C4000B6010CC08A2D867859F0A1FE02C08BE245
:101C500001C080E2A7FC8DE2B60190E00E946E0E0A
:101C6000891438F4B60180E390E00E946E0E9A94D5
:101C7000F7CF8A94F301E80DF11D8081B60190E061
:101C80000E946E0E8110F5CF222009F442CEB601DB
:101C900080E290E00E946E0E2A94F6CFF6018681D3
:101CA000978102C08FEF9FEF2B96E2E10C94240FF7
:101CB000FC010590615070400110D8F78095909517
:101CC0008E0F9F1F0895FC0161507040019001101C
:101CD000D8F7809590958E0F9F1F08950F931F93AF
:101CE000CF93DF93FB01238121FD03C08FEF9FEF93
:101CF0002CC022FF16C046815781248135814217AE
:101D0000530744F4A081B1819D012F5F3F4F318380
:101D100020838C93268137812F5F3F4F3783268323
:101D200014C08B01EC01FB010084F185E02D0995C5
:101D3000892BE1F6D80116968D919C911797019603
:101D400017969C938E931697CE01DF91CF911F919A
:101D50000F910895FA01AA27283051F1203181F11D
:101D6000E8946F936E7F6E5F7F4F8F4F9F4FAF4FA3
:101D7000B1E03ED0B4E03CD0670F781F891F9A1FB6
:101D8000A11D680F791F8A1F911DA11D6A0F711D6A
:101D9000811D911DA11D20D009F468943F912AE076
:101DA000269F11243019305D3193DEF6CF0108955E
:101DB000462F4770405D4193B3E00FD0C9F7F6CF8F
:101DC000462F4F70405D4A3318F0495D31FD405257
:101DD000419302D0A9F7EACFB4E0A69597958795ED
:101DE00077956795BA95C9F70097610571050895CC
:101DF0009B01AC010A2E0694579547953795279578
:101E0000BA95C9F7620F731F841F951FA01D08950F
:101E10002F923F924F925F926F927F928F929F92FA
:101E2000AF92BF92CF92DF92EF92FF920F931F93E8
:101E3000CF93DF93CDB7DEB7CA1BDB0B0FB6F89499
:101E4000DEBF0FBECDBF09942A88398848885F84D9
:101E50006E847D848C849B84AA84B984C884DF804A
:101E6000EE80FD800C811B81AA81B981CE0FD11D2E
:101E70000FB6F894DEBF0FBECDBFED010895F89404
:021E8000FFCF92
:101E8200010000000200000000AB0B000000006532
:101E920072723D25640A0067616D65206F76657216
:101EA2000D004D656E752050696E672D506F6E671F
:101EB2000020537461727400204C65616465726223
:101EC2006F6172640073697A653A2025640A00259D
:101ED200640047616D6520537461727465642021EA
:101EE2000053636F72653A005361766520796F75AE
:101EF200722073636F7265005E202000205E2000F6
:041F020020205E003D
:00000001FF
