:100000000C94C4020C9414040C94E1020C94E102CC
:100010000C94E1020C94E1020C94E1020C94D407DC
:100020000C94E1020C94E1020C94E1020C94E102C4
:100030000C94E1020C94E1020C94E1020C94E102B4
:100040000C94E1020C94E1020C94E1020C94560A27
:100050000C94E1020C94E1020C94E1020C94E10294
:100060000C94E1020C94E1020C94E1020C94E10284
:10007000008040201008080804040408081060806C
:10008000000000000000001C638000000000000071
:1000900000008040201009FE000000000000000069
:1000A00000010102020404060504040404081122EC
:1000B0004488502000000000000000005F000000A5
:1000C00007000700147F147F14242A7F2A122313A9
:1000D00008646236495522500005030000001C22C6
:1000E00041000041221C00082A1C2A0808083E087A
:1000F0000800503000000808080808006060000090
:1001000020100804023E5149453E00427F40004213
:10011000615149462141454B311814127F10274542
:100120004545393C4A494930017109050336494979
:100130004936064949291E00363600000056360069
:10014000000008142241141414141441221408004D
:100150000201510906324979413E7E1111117E7F1B
:10016000494949363E414141227F4141221C7F4954
:100170004949417F090901013E414151327F080847
:10018000087F00417F41002040413F017F08142249
:10019000417F404040407F0204027F7F0408107F7F
:1001A0003E4141413E7F090909063E4151215E7FA2
:1001B00009192946464949493101017F01013F405A
:1001C00040403F1F2040201F7F2018207F631408DD
:1001D00014630304780403615149454300007F41DF
:1001E00041020408102041417F0000040201020482
:1001F0004040404040000102040020545454787FA5
:10020000484444383844444420384444487F3854AF
:10021000545418087E090102081454543C7F080401
:10022000047800447D40002040443D00007F1028B9
:100230004400417F40007C041804787C0804047862
:1002400038444444387C14141408081414187C7C72
:10025000080404084854545420043F4440203C40BF
:1002600040207C1C2040201C3C4030403C44281056
:1002700028440C5050503C4464544C4400083641CF
:100280000000007F00000041360800020103020167
:10029000000000000000000000065F5F0600000094
:1002A0000007070007070000147F7F147F7F1400FA
:1002B000242E6B6B3A120000466630180C66620002
:1002C000307A4F5D377A48000407030000000000D1
:1002D000001C3E63410000000041633E1C00000022
:1002E000082A3E1C1C3E2A0808083E3E080800005A
:1002F00000A0E060000000000808080808080000EE
:1003000000006060000000006030180C060301006F
:100310003E7F594D7F3E000042427F7F40400000BB
:10032000627359496F660000226349497F360000B5
:10033000181C16137F7F1000276745457D39000084
:100340003C7E4B4979300000036371190F070000B0
:10035000367F49497F360000064F49693F1E00003D
:1003600000006C6C0000000000A0EC6C00000000BD
:10037000081C366341000000141414141414000007
:10038000004163361C080000020351590F060000AB
:100390003E7F415D5D1F1E007C7E13137E7C00004E
:1003A000417F7F49497F36001C3E63414163220003
:1003B000417F7F41637F1C00417F7F495D41630036
:1003C000417F7F491D0103001C3E63415173720050
:1003D0007F7F08087F7F000000417F7F4100000091
:1003E000307040417F3F0100417F7F081C776300F0
:1003F000417F7F41406070007F7F060C067F7F0059
:100400007F7F060C187F7F001C3E6341633E1C000B
:10041000417F7F49090F06001E3F21717F5E00006A
:10042000417F7F19396F460026674D597B320000A6
:1004300003417F7F410300007F7F40407F7F0000BA
:100440001F3F60603F1F00007F7F3018307F7F00BC
:1004500063771C081C776300074F78784F0700000C
:100460006773594D47637100007F7F414100000071
:100470000103060C183060000041417F7F0000003E
:10048000080C0603060C0800808080808080808035
:100490000000030704000000207454543C7840001E
:1004A000413F7F44447C3800387C44446C28000041
:1004B000307848493F7F4000387C54545C18000035
:1004C000487E7F490302000098BCA4A4F87C040085
:1004D000417F7F08047C780000447D7D400000005F
:1004E00040C484FD7D000000417F7F10386C4400D3
:1004F00000417F7F400000007C7C0C180C7C780061
:100500007C7C04047C780000387C44447C38000007
:1005100084FCF8A4243C1800183C24A4F8FC8400B3
:10052000447C78441C180000485C54547424000037
:1005300000043E7F442400003C7C40403C7C400062
:100540001C3C60603C1C00003C7C6030607C3C00DB
:10055000446C3810386C44009CBCA0A0FC7C0000AB
:100560004C64745C4C64000008083E774141000014
:1005700000000077770000004141773E0808000046
:10058000020301030203010011241FBECFEFD4E0D8
:10059000DEBFCDBF12E0A0E0B1E0EAEFFCE102C0B7
:1005A00005900D92AE35B107D9F722E0AEE5B2E085
:1005B00001C01D92AA37B207E1F70E94B8060C9459
:1005C0007B0E0C94000081B3806281BB81B3877F76
:1005D00081BB89E08EBD80E48FBD82E090E09BBD51
:1005E0008ABD81B38F7E81BB0895CF93DF93FC01D9
:1005F0001092001000C0849BFECFA0E0B0E18C916F
:10060000C6E6D2E02881398190E0821B930B91836A
:1006100080838C912A813B8190E0821B930B938392
:1006200082838C9190E0958384838C9190E0978372
:10063000868380B386958695869591E0892781701B
:1006400080871186CF01DF91CF910895CF93DF93FB
:10065000CDB7DEB72A970FB6F894DEBF0FBECDBF79
:10066000CE0101960E94F5028AE0FE013196A6E6CF
:10067000B2E001900D928A95E1F72A960FB6F894B0
:10068000DEBF0FBECDBFDF91CF9108950F931F93B3
:10069000CF93DF93CDB7DEB72A970FB6F894DEBFBE
:1006A0000FBECDBF09831A832B833C838B819C8132
:1006B0008B3091055CF029813A812817390734F491
:1006C000319521953109281739076CF1863F2FEFB5
:1006D00092075CF429813A818217930734F43195AB
:1006E000219531098217930704F129813A812B3032
:1006F000310554F0281739073CF044275527481B8B
:10070000590B241735079CF4263F4FEF34078CF420
:100710008217930784F09195819591098217930729
:1007200064F484E00BC082E009C083E007C081E08C
:1007300005C084E003C084E001C080E02A960FB6C3
:10074000F894DEBF0FBECDBFDF91CF911F910F9107
:100750000895F8940E942C0583EC99E00197F1F735
:1007600000C0000063E08AE20E94DB046DEB89E2D6
:100770000E94DB0467E088E20E94DB0463E08BE216
:100780000E94DB0464E680E60E94DB0460E680E70A
:100790000E94DB0485B7826085BF85B78E7F85BFE9
:1007A0008BB780648BBF789467E48FE00E94DB0492
:1007B00089EF90E00197F1F700C0000008950F93D2
:1007C0001F93CF938C01FC0180819181BC017695B0
:1007D00067957695679576956795C82FC295CC0FE6
:1007E000C07E81E30E94DB046C2F82E30E94DB0465
:1007F000F80162816F7085E30E94DB04C0E009C0EC
:10080000F801EC0FF11D638186E38C0F0E94DB047D
:10081000CF5FF8018281C81798F381E00E94F70446
:10082000CF911F910F9108951F920F920FB60F92C3
:1008300011242F933F934F935F936F937F938F93E5
:100840009F93AF93BF93EF93FF938CE20E94C004FA
:1008500080937002FF91EF91BF91AF919F918F9123
:100860007F916F915F914F913F912F910F900FBEAC
:100870000F901F901895EF92FF920F931F93CF93B5
:100880008C019091700290FF39C081E60E94C004F3
:10089000C82F82E60E94C0042C2F30E0220F331FA5
:1008A000220F331F220F331F829586958770282BC6
:1008B000F8013183208385E60E94C0048F70F8011F
:1008C0008283C0E00BC0EC2EF12C86E68C0F0E94D8
:1008D000C004F801EE0DFF1D8383CF5FF801828114
:1008E000C81788F340E061E08CE20E94080580911F
:1008F00070028E7F8093700281E03CC0892F8270ED
:1009000091FF38C081E70E94C004C82F82E70E948F
:10091000C0042C2F30E0220F331F220F331F220F71
:10092000331F829586958770282BF80131832083A9
:1009300085E70E94C0048F70F8018283C0E00BC07D
:10094000EC2EF12C86E78C0F0E94C004F801EE0D0E
:10095000FF1D8383CF5FF8018281C81788F340E0D1
:1009600062E08CE20E940805809170028D7F809386
:10097000700281E0CF911F910F91FF90EF90089549
:10098000CF93C82F80E00E94200A83E00E944E0A85
:100990000E94520A8C2F0E944E0A0E94520A80E046
:1009A0000E944E0A0E94520AC82F83E00E94200A29
:1009B0008C2FCF910895CF93DF93D82FC62F80E04F
:1009C0000E94200A82E00E944E0A0E94520A8D2F45
:1009D0000E944E0A0E94520A8C2F0E944E0A0E94C8
:1009E000520A83E00E94200ADF91CF910895CF93AD
:1009F000C82F80E00E94200A8C2F877080580E94A8
:100A00004E0A0E94520A83E00E94200ACF91089564
:100A10001F93CF93DF93182FD62FC42F80E00E940F
:100A2000200A85E00E944E0A0E94520A812F0E94ED
:100A30004E0A0E94520A8D2F0E944E0A0E94520AAC
:100A40008C2F0E944E0A0E94520A83E00E94200AC4
:100A5000DF91CF911F91089580E00E94200A80ECE1
:100A60000E944E0A0E94520A83E00E94200A0895C2
:100A70000E94170A0895CF93DF93CDB7DEB72A9768
:100A80000FB6F894DEBF0FBECDBF81E00E94200AF2
:100A900084E00E944E0A0E94520A80E00E944E0AA0
:100AA0000E94520A8E8380E00E944E0A0E94520ADF
:100AB0008F8380E00E944E0A0E94520A888782E05B
:100AC0000E944E0A0E94520A80E00E944E0A0E9432
:100AD000520A898780E00E944E0A0E94520A8A8741
:100AE00083E00E94200A85E0FE013696DE01119621
:100AF00001900D928A95E1F729813A814B815C81C1
:100B00006D8170E080E090E02A960FB6F894DEBF29
:100B10000FBECDBFDF91CF910895CF93DF93D82F34
:100B2000C62F81E00E94200A85E00E944E0A0E94A2
:100B3000520A8D2F0E944E0A0E94520A8C2F0E9448
:100B40004E0A0E94520A83E00E94200ADF91CF9150
:100B50000895CF92DF92EF92FF920F931F93CF935E
:100B6000DF93CDB7DEB766970FB6F894DEBF0FBE42
:100B7000CDBF83E191E00E94420B00E010E0C12C68
:100B8000D12C5DC0FA82E9821D861C860B831F86EC
:100B90001C821D821E821F82188619861A861B8659
:100BA00080E090E008C0E4E0F0E0EC0FFD1FE80F0B
:100BB000F91F8083019680179107ACF3CE0101964F
:100BC0000E94DF03CE010C960E943B048823D1F3E0
:100BD00029813A818C859D852817390721F49B81CD
:100BE0008E859817D1F08FEFC81AD80A1BC0E4E0A1
:100BF000F0E0EC0FFD1FE80FF91F3081EFE0F0E0AF
:100C0000EC0FFD1FE80FF91F2081321721F08FEF45
:100C1000C81AD80A07C0019602C080E090E0801789
:100C200091072CF38FEFE81AF80A02C0E12CF12C9F
:100C30008FE7E816F1040CF4A5CF0F5F1F4F0830C3
:100C40001105A4F3DF92CF9282E291E09F938F93FC
:100C50000E94250B0F900F900F900F9066960FB685
:100C6000F894DEBF0FBECDBFDF91CF911F910F91E2
:100C7000FF90EF90DF90CF900895EF92FF920F9347
:100C80001F93CF93DF9383E491E00E94420B0E9475
:100C9000150B7C010E941A0BC0E0D0E000E010E0D0
:100CA00020C00E94150BFE01FC5E80832081281766
:100CB000B9F099279F938F931F922F93DF93CF9330
:100CC00089E591E09F938F930E94250B0F5F1F4F43
:100CD0008DB79EB708960FB6F8949EBF0FBE8DBF16
:100CE0002196CF3F9BE0D907E0F2C7010E941A0B83
:100CF000C0E0D0E0E12CF12C20C00E94150BFE01D9
:100D0000FC5E20812817C1F099279F938F931F9233
:100D10002F93DF93CF9382E991E09F938F930E946B
:100D2000250B8FEFE81AF80A8DB79EB708960FB615
:100D3000F8949EBF0FBE8DBF2196CF3F9BE0D90791
:100D4000E0F2FF92EF921F930F938FEC91E09F934D
:100D50008F930E94250B0F900F900F900F900F9084
:100D60000F90DF91CF911F910F91FF90EF90089519
:100D7000CF93DF93CDB7DEB72F970FB6F894DEBFD2
:100D80000FBECDBF60E875E280E090E00E94810A6E
:100D90000E94980A0E94E3020E9444070E943805BC
:100DA0000E9426030E94A9030E94A9050E943D06F5
:100DB0000E94F8070E94780961E082E00E948D0598
:100DC00061E084E00E948D056894FF24F2F888E2D7
:100DD00092E00E94420BCE0101960E94F502098129
:100DE0001A812B813C814D815E816F817885898557
:100DF0009A850E944603182FF816C1F1823051F4EB
:100E000080917102882331F08150809371020E9499
:100E100078092CC0133061F4E1E7F2E08081918120
:100E2000891730F48F5F809371020E9478091EC089
:100E3000113089F4E1E7F2E02081422F50E0818116
:100E400090E001974817590734F42E5F2093710200
:100E50000E9478090BC0111109C080917102823083
:100E600028F08250809371020E94780989859A85C2
:100E7000892B21F08AE292E00E94420B0E943B05FE
:100E80000E94E509F12EA3CFE1E7F2E0108282E0B3
:100E900081830E94170A87B3826087BB82E00E9429
:100EA000200A88B38D7F88BB8EEA0E944E0A0E947A
:100EB000520A81EA0E944E0A0E94520A8AED0E945A
:100EC0004E0A0E94520A82E10E944E0A0E94520A71
:100ED00088EC0E944E0A0E94520A88EA0E944E0A3A
:100EE0000E94520A8FE30E944E0A0E94520A85ED28
:100EF0000E944E0A0E94520A80E80E944E0A0E94F6
:100F0000520A81E80E944E0A0E94520A80E50E941D
:100F10004E0A0E94520A89ED0E944E0A0E94520A0D
:100F200081E20E944E0A0E94520A80E20E944E0A0A
:100F30000E94520A82E00E944E0A0E94520A8BEDE1
:100F40000E944E0A0E94520A84E30E944E0A0E94A6
:100F5000520A84EA0E944E0A0E94520A86EA0E94BD
:100F60004E0A0E94520A8FEA0E944E0A0E94520ABA
:100F700083E00E94200A0895EAE8F0E01082808170
:100F8000886080838FEF9BE2909387008093860038
:100F900080818B7F8083808183608083EDE7F0E0B8
:100FA00080818061808308951F920F920FB60F9207
:100FB00011248F939F9381E080935E02809163025E
:100FC000882379F0F8941092630280910401809351
:100FD00064029091040181E0911180E0809304010A
:100FE00078949F918F910F900FBE0F901F9018953E
:100FF000CF93DF930E9444070E94980AC0E0D0E09C
:1010000005C0BE0180E00E949F0A2196C11588E0BC
:10101000D807B8F31092640281E080930401109223
:1010200063021092620210926102109260021092AA
:101030005F020E94BC077894DF91CF910895F894E5
:1010400081E08093630278940895EF92FF920F936A
:101050001F93CF93DF93F82EE62E00EE040F8091BE
:101060000401811103C0C0E0D0E002C0C0E0D4E0C0
:1010700010E01DC0802F90E0612F70E0FC01EE0FAA
:10108000FF1FEE0FFF1FE80FF91FE60FF71FEB54CE
:10109000FF4F84916E0D711D9E0190E8F99E200D09
:1010A000311D1124620F731F0E949F0A1F5F1530AC
:1010B00008F3DF91CF911F910F91FF90EF9008956A
:1010C000FF920F931F93CF93DF93F82ED62F8A01B1
:1010D000C0E00AC08C2F880F8C0F682F660F6D0F31
:1010E0008F2D0E942508CF5FF801EC0FF11D408184
:1010F0004111F0CFDF91CF911F910F91FF90089593
:10110000EF92FF920F931F93CF93DF93F82EE62E6B
:1011100000EE040F80910401811103C0C0E0D0E013
:1011200002C0C0E0D4E010E01CC0E02FF0E0612F6E
:1011300070E0EE0FFF1FEE0FFF1FEE0FFF1FE60F19
:10114000F71FE057FD4F84916E0D711D9E0190E8D1
:10115000F99E200D311D1124620F731F0E949F0AFA
:101160001F5F183010F3DF91CF911F910F91FF9007
:10117000EF900895FF920F931F93CF93DF93F82E74
:10118000D62F8A01C0E00AC06C2F660F660F660F6B
:101190006C1B6D0F8F2D0E948008CF5FF801EC0F44
:1011A000F11D40814111F0CFDF91CF911F910F913F
:1011B000FF900895BF92CF92DF92EF92FF920F932C
:1011C0001F93CF93DF93E82EB62E809104018111F7
:1011D00003C0C12CD12C04C0C12C6894DD24D2F8EA
:1011E00000E010E024C087E1809FF001819FF00DB6
:1011F0001124E00FF11FE059FF4F8491B8016E0DEB
:10120000711D7695762F6627779567956C0D7D1DF8
:101210009E012B0D311D620F731F0E949F0A2197A3
:1012200002C0C6E1D0E0DD23F4F60F5F1F4F0330AC
:101230001105BCF3F12CE701D695DC2FCC27D7950F
:10124000C795CC0DDD1DCB0DD11DBE01625E7F4F5C
:101250008EE00E949F0ABE01615E7F4F8FE10E9477
:101260009F0ABE01605E7F4F8FE10E949F0ABE0110
:101270006F5D7F4F8FE10E949F0ABE016E5D7F4FC1
:101280008EE00E949F0A00E010E025C087E1809F69
:10129000F001819FF00D1124E00FF11FE059FF4F85
:1012A0008491B8016E0D7F1D7695762F6627779510
:1012B00067956C0D7D1D9E012B0D311D620F731FF7
:1012C0000E949F0A219602C0C0E0D0E0C731D1053C
:1012D000ECF20F5F1F4F03301105B4F3DF91CF9194
:1012E0001F910F91FF90EF90DF90CF90BF900895E6
:1012F00047E352E060E080E00E94BA0846E452E032
:1013000060E082E00E9460084DE452E064E382E025
:101310000E94600847E552E060E083E00E946008B8
:1013200080917102811106C04EE360E082E00E946C
:1013300025080DC0813031F44EE360E083E00E9467
:10134000250805C04EE364E382E00E9425086CE1B5
:1013500085E00E94DA080E941F080895CF93DF936A
:10136000D82FC62F88B38D7F88BB82E00E94200AC9
:101370008D2F8F70806B0E944E0A0E94520A8C2F14
:101380008F700E944E0A0E94520A8C2F82958F7095
:1013900080610E944E0A0E94520A83E00E94200A45
:1013A000DF91CF910895CF93C82F82E00E94200A49
:1013B00088B3826088BB8C2F0E944E0A0E94520A1A
:1013C00083E00E94200ACF9108951F93CF93DF936B
:1013D00080915E02811122C026C060E0812F0E94B0
:1013E000AE09C0E0D0E015C080916402811103C055
:1013F00080E090E002C080E094E020E8129F800D41
:10140000911D11248C0F9D1F0E94A30A0E94D309D5
:101410002196C038D10540F31F5F01C010E018309D
:10142000E0F210925E02DF91CF911F91089587B391
:101430008C6B87BB87B38F7B87BB80E58DB90895A5
:1014400081110AC088B3877F88BB88B3846088BB5A
:1014500088B3806188BB0895813051F488B38F7E52
:1014600088BB88B3846088BB88B3886088BB0895D4
:10147000823051F488B38B7F88BB88B3886088BB87
:1014800088B3806188BB089588B3886088BB88B3BF
:10149000846088BB88B3806188BB08958FB9779BCF
:1014A000FECF0895779BFECF8FB108951F920F92C4
:1014B0000FB60F9211248F938CB18093730281E049
:1014C000809365028F910F900FBE0F901F9018951B
:1014D0005D9BFECF8CB90895CF93C82F8A3019F445
:1014E0008DE00E94680A8C2F0E94680A80E090E0DC
:1014F000CF91089585E091E09093770280937602F2
:1015000008959B01AC0160E070EB84E090E00E94E4
:10151000A70A2150310930BD29B988E98AB986E87E
:1015200080BD0E947A0A8AE090E00E943B0B0895F9
:1015300085B7806885BF80B7886080BF0895FB014C
:10154000FC5E808308959C5EFC0180810895A1E289
:101550001A2EAA1BBB1BFD010DC0AA1FBB1FEE1F2D
:10156000FF1FA217B307E407F50720F0A21BB30B78
:10157000E40BF50B661F771F881F991F1A9469F7F4
:1015800060957095809590959B01AC01BD01CF0150
:1015900008958F929F92AF92BF92CF92DF92EF9277
:1015A000FF92CF93DF93EC01688179818A819B81DF
:1015B000611571058105910521F464E279ED8BE5F2
:1015C00097E02DE133EF41E050E00E94030E490126
:1015D0005A019B01AC01A7EAB1E40E94220E6B0103
:1015E0007C01ACEEB4EFA50194010E94300EDC0149
:1015F000CB018C0D9D1DAE1DBF1DB7FF03C0019714
:10160000A109B04888839983AA83BB839F77DF9120
:10161000CF91FF90EF90DF90CF90BF90AF909F90D1
:101620008F9008950E94C90A089580E091E00E9479
:10163000C90A0895A0E0B0E08093000190930101F1
:10164000A0930201B09303010895A0E0B0E0EBE2A3
:10165000FBE00C94450EAE014B5F5F4FFA016191C8
:101660007191AF0180917602909177020E94720B86
:10167000E2E00C94610E60917602709177020E9414
:10168000690D08950F931F93CF93DF93E091760236
:10169000F0917702238121FF1BC08C01D0E0C0E0D4
:1016A000F80181918F016091760270917702DB01E0
:1016B0001896ED91FC911997882331F00995892BA3
:1016C00079F3DFEFCFEFECCF8AE00995892B19F0A2
:1016D0008FEF9FEF02C08D2F9C2FDF91CF911F9135
:1016E0000F910895ABE0B0E0E8E7FBE00C94350E15
:1016F0006C017B018A01FC0117821682838181FFC4
:10170000CCC1CE0101963C01F6019381F70193FD16
:10171000859193FF81917F01882309F4BAC18532B5
:1017200039F493FD859193FF81917F01853229F4EE
:10173000B60190E00E94690DE7CF912C212C312C4D
:10174000FFE1F315D8F08B3279F038F4803279F07C
:101750008332A1F4232D20611DC08D3261F08033CE
:1017600069F4232D216016C0832D8260382EE32D6D
:10177000E4603E2E2AC0F32DF8601DC037FC2DC05A
:1017800020ED280F2A3040F08E32B9F436FC81C1AA
:10179000232D2064322E19C036FE06C08AE0989EA2
:1017A000200D1124922E11C0EAE02E9E200D11244E
:1017B000222EF32DF0623F2E08C08C3621F4832DAB
:1017C0008068382E02C0883641F4F70193FD859178
:1017D00093FF81917F018111B3CF982F9F7D955405
:1017E000933028F40C5F1F4F9FE399830DC083361D
:1017F00031F0833771F0833509F059C021C0F80109
:10180000808189830E5F1F4F88248394912C53011C
:1018100013C02801F2E04F0E511CF801A080B180E6
:1018200036FE03C0692D70E002C06FEF7FEFC50187
:101830000E945E0D4C018201F32DFF773F2E16C0F2
:10184000280122E0420E511CF801A080B18036FE32
:1018500003C0692D70E002C06FEF7FEFC5010E94E9
:10186000530D4C01F32DF0683F2E820133FC1BC059
:10187000822D90E088169906B0F4B60180E290E0DF
:101880000E94690D2A94F4CFF50137FC859137FE4B
:1018900081915F01B60190E00E94690D21102A94A8
:1018A00021E0821A91088114910471F7E8C084360E
:1018B00011F0893641F5F80137FE07C0608171816A
:1018C000828193810C5F1F4F08C060817181072E58
:1018D000000C880B990B0E5F1F4FF32DFF763F2EE8
:1018E00097FF09C090958095709561957F4F8F4FB8
:1018F0009F4FF0683F2E2AE030E0A3010E94A50D23
:10190000882E861845C0853731F4232D2F7EB22EC0
:101910002AE030E025C0932D997FB92E8F36C1F093
:1019200018F4883579F0B5C0803719F0883721F080
:10193000B0C0E92FE061BE2EB4FE0DC0FB2DF460F7
:10194000BF2E09C034FE0AC0292F2660B22E06C061
:1019500028E030E005C020E130E002C020E132E0C4
:10196000F801B7FE07C060817181828193810C5FAD
:101970001F4F06C06081718180E090E00E5F1F4FB5
:10198000A3010E94A50D882E8618FB2DFF773F2E00
:1019900036FE0DC0232D2E7FA22E891458F434FE5E
:1019A0000BC032FC09C0832D8E7EA82E05C0B82C3A
:1019B000A32C03C0B82C01C0B92CA4FE0FC0FE019B
:1019C000E80DF11D8081803321F49A2D997EA92E96
:1019D00009C0A2FE06C0B394B39404C08A2D8678D1
:1019E00009F0B394A3FC11C0A0FE06C0B21488F4A1
:1019F000280C922C9B180EC0B21460F4B60180E241
:101A000090E00E94690DB394F7CFB21418F42B182C
:101A100002C0982C212CA4FE10C0B60180E390E0F7
:101A20000E94690DA2FE17C0A1FC03C088E790E0E8
:101A300002C088E590E0B6010CC08A2D867859F086
:101A4000A1FE02C08BE201C080E2A7FC8DE2B601DC
:101A500090E00E94690D891438F4B60180E390E0AB
:101A60000E94690D9A94F7CF8A94F301E80DF11D55
:101A70008081B60190E00E94690D8110F5CF22208F
:101A800009F442CEB60180E290E00E94690D2A94EA
:101A9000F6CFF6018681978102C08FEF9FEF2B96DC
:101AA000E2E10C94510EFC01059061507040011070
:101AB000D8F7809590958E0F9F1F0895FC01615077
:101AC000704001900110D8F7809590958E0F9F1F60
:101AD00008950F931F93CF93DF93FB01238121FD83
:101AE00003C08FEF9FEF2CC022FF16C046815781A5
:101AF000248135814217530744F4A081B1819D01AF
:101B00002F5F3F4F318320838C93268137812F5F56
:101B10003F4F3783268314C08B01EC01FB01008407
:101B2000F185E02D0995892BE1F6D80116968D9166
:101B30009C911797019617969C938E931697CE01BA
:101B4000DF91CF911F910F910895FA01AA272830B4
:101B500051F1203181F1E8946F936E7F6E5F7F4F7A
:101B60008F4F9F4FAF4FB1E03ED0B4E03CD0670FF6
:101B7000781F891F9A1FA11D680F791F8A1F911D49
:101B8000A11D6A0F711D811D911DA11D20D009F499
:101B900068943F912AE0269F11243019305D3193DB
:101BA000DEF6CF010895462F4770405D4193B3E0C4
:101BB0000FD0C9F7F6CF462F4F70405D4A3318F06B
:101BC000495D31FD4052419302D0A9F7EACFB4E01C
:101BD000A6959795879577956795BA95C9F70097D4
:101BE0006105710508959B01AC010A2E0694579575
:101BF000479537952795BA95C9F7620F731F841FCC
:101C0000951FA01D0895052E97FB1EF400940E94B9
:101C10001A0E57FD07D00E94A70A07FC03D04EF406
:101C20000C941A0E50954095309521953F4F4F4F8B
:101C30005F4F089590958095709561957F4F8F4F78
:101C40009F4F08950E946C0EA59F900DB49F900D1C
:101C5000A49F800D911D11240895B7FF0C94220EAE
:101C60000E94220E821B930B08952F923F924F9257
:101C70005F926F927F928F929F92AF92BF92CF921C
:101C8000DF92EF92FF920F931F93CF93DF93CDB725
:101C9000DEB7CA1BDB0B0FB6F894DEBF0FBECDBF9D
:101CA00009942A88398848885F846E847D848C846E
:101CB0009B84AA84B984C884DF80EE80FD800C8177
:101CC0001B81AA81B981CE0FD11D0FB6F894DEBF5A
:101CD0000FBECDBFED010895A29FB001B39FC0011B
:101CE000A39F700D811D1124911DB29F700D811D48
:0A1CF0001124911D0895F894FFCF10
:101CFA00010000000100000002000000006C0A0060
:101D0A0000000054657374696E672043414E2E2E9D
:101D1A002E0066696E6973686564207465737469F8
:101D2A006E672043414E3A202564206572726F72B5
:101D3A00730A005374617274696E67205352414D7D
:101D4A0020746573742E2E2E005772697465207084
:101D5A0068617365206572726F723A206578745F84
:101D6A0072616D5B2534645D203D20253032582038
:101D7A002873686F756C6420626520253032582993
:101D8A000A0052657472696576616C2070686173C5
:101D9A0065206572726F723A206578745F72616D40
:101DAA005B2534645D203D20253032582028736835
:101DBA006F756C642062652025303258290A0053F9
:101DCA0052414D207465737420636F6D706C657435
:101DDA0065642077697468200A2534642065727204
:101DEA006F727320696E20777269746520706861FA
:101DFA00736520616E64200A253464206572726FEF
:101E0A00727320696E2072657472656976616C20DE
:101E1A0070686173650A0A0062005052455353455F
:101E2A004400646F6E65004D656E752050696E677B
:101E3A002D506F6E670020537461727400205375C1
:0E1E4A0062204D656E750020517569740000B0
:00000001FF
