:100000000C94C4020C9414040C94E1020C94E102CC
:100010000C94E1020C94E1020C94E1020C94680649
:100020000C94E1020C94E1020C94E1020C94E102C4
:100030000C94E1020C94E1020C94E1020C94E102B4
:100040000C94E1020C94E1020C94E1020C9403097B
:100050000C94E1020C94E1020C94E1020C94E10294
:100060000C94E1020C94E1020C94E1020C94E10284
:10007000008040201008080804040408081060806C
:10008000000000000000001C638000000000000071
:1000900000008040201009FE000000000000000069
:1000A00000010102020404060504040404081122EC
:1000B0004488502000000000000000005F000000A5
:1000C00007000700147F147F14242A7F2A122313A9
:1000D00008646236495522500005030000001C22C6
:1000E00041000041221C00082A1C2A0808083E087A
:1000F0000800503000000808080808006060000090
:1001000020100804023E5149453E00427F40004213
:10011000615149462141454B311814127F10274542
:100120004545393C4A494930017109050336494979
:100130004936064949291E00363600000056360069
:10014000000008142241141414141441221408004D
:100150000201510906324979413E7E1111117E7F1B
:10016000494949363E414141227F4141221C7F4954
:100170004949417F090901013E414151327F080847
:10018000087F00417F41002040413F017F08142249
:10019000417F404040407F0204027F7F0408107F7F
:1001A0003E4141413E7F090909063E4151215E7FA2
:1001B00009192946464949493101017F01013F405A
:1001C00040403F1F2040201F7F2018207F631408DD
:1001D00014630304780403615149454300007F41DF
:1001E00041020408102041417F0000040201020482
:1001F0004040404040000102040020545454787FA5
:10020000484444383844444420384444487F3854AF
:10021000545418087E090102081454543C7F080401
:10022000047800447D40002040443D00007F1028B9
:100230004400417F40007C041804787C0804047862
:1002400038444444387C14141408081414187C7C72
:10025000080404084854545420043F4440203C40BF
:1002600040207C1C2040201C3C4030403C44281056
:1002700028440C5050503C4464544C4400083641CF
:100280000000007F00000041360800020103020167
:10029000000000000000000000065F5F0600000094
:1002A0000007070007070000147F7F147F7F1400FA
:1002B000242E6B6B3A120000466630180C66620002
:1002C000307A4F5D377A48000407030000000000D1
:1002D000001C3E63410000000041633E1C00000022
:1002E000082A3E1C1C3E2A0808083E3E080800005A
:1002F00000A0E060000000000808080808080000EE
:1003000000006060000000006030180C060301006F
:100310003E7F594D7F3E000042427F7F40400000BB
:10032000627359496F660000226349497F360000B5
:10033000181C16137F7F1000276745457D39000084
:100340003C7E4B4979300000036371190F070000B0
:10035000367F49497F360000064F49693F1E00003D
:1003600000006C6C0000000000A0EC6C00000000BD
:10037000081C366341000000141414141414000007
:10038000004163361C080000020351590F060000AB
:100390003E7F415D5D1F1E007C7E13137E7C00004E
:1003A000417F7F49497F36001C3E63414163220003
:1003B000417F7F41637F1C00417F7F495D41630036
:1003C000417F7F491D0103001C3E63415173720050
:1003D0007F7F08087F7F000000417F7F4100000091
:1003E000307040417F3F0100417F7F081C776300F0
:1003F000417F7F41406070007F7F060C067F7F0059
:100400007F7F060C187F7F001C3E6341633E1C000B
:10041000417F7F49090F06001E3F21717F5E00006A
:10042000417F7F19396F460026674D597B320000A6
:1004300003417F7F410300007F7F40407F7F0000BA
:100440001F3F60603F1F00007F7F3018307F7F00BC
:1004500063771C081C776300074F78784F0700000C
:100460006773594D47637100007F7F414100000071
:100470000103060C183060000041417F7F0000003E
:10048000080C0603060C0800808080808080808035
:100490000000030704000000207454543C7840001E
:1004A000413F7F44447C3800387C44446C28000041
:1004B000307848493F7F4000387C54545C18000035
:1004C000487E7F490302000098BCA4A4F87C040085
:1004D000417F7F08047C780000447D7D400000005F
:1004E00040C484FD7D000000417F7F10386C4400D3
:1004F00000417F7F400000007C7C0C180C7C780061
:100500007C7C04047C780000387C44447C38000007
:1005100084FCF8A4243C1800183C24A4F8FC8400B3
:10052000447C78441C180000485C54547424000037
:1005300000043E7F442400003C7C40403C7C400062
:100540001C3C60603C1C00003C7C6030607C3C00DB
:10055000446C3810386C44009CBCA0A0FC7C0000AB
:100560004C64745C4C64000008083E774141000014
:1005700000000077770000004141773E0808000046
:10058000020301030203010011241FBECFEFD4E0D8
:10059000DEBFCDBF12E0A0E0B1E0E6EDF3E102C0C6
:1005A00005900D92A836B107D9F722E0A8E6B2E08F
:1005B00001C01D92A438B207E1F70E9434050C94E3
:1005C000E9090C94000081B3806281BB81B3877F0D
:1005D00081BB89E08EBD80E48FBD82E090E09BBD51
:1005E0008ABD81B38F7E81BB0895CF93DF93FC01D9
:1005F0001092001000C0849BFECFA0E0B0E18C916F
:10060000C0E7D2E02881398190E0821B930B91836F
:1006100080838C912A813B8190E0821B930B938392
:1006200082838C9190E0958384838C9190E0978372
:10063000868380B386958695869591E0892781701B
:1006400080871186CF01DF91CF910895CF93DF93FB
:10065000CDB7DEB72A970FB6F894DEBF0FBECDBF79
:10066000CE0101960E94F5028AE0FE013196A0E7D4
:10067000B2E001900D928A95E1F72A960FB6F894B0
:10068000DEBF0FBECDBFDF91CF9108950F931F93B3
:10069000CF93DF93CDB7DEB72A970FB6F894DEBFBE
:1006A0000FBECDBF09831A832B833C838B819C8132
:1006B0008B3091055CF029813A812817390734F491
:1006C000319521953109281739076CF1863F2FEFB5
:1006D00092075CF429813A818217930734F43195AB
:1006E000219531098217930704F129813A812B3032
:1006F000310554F0281739073CF044275527481B8B
:10070000590B241735079CF4263F4FEF34078CF420
:100710008217930784F09195819591098217930729
:1007200064F484E00BC082E009C083E007C081E08C
:1007300005C084E003C084E001C080E02A960FB6C3
:10074000F894DEBF0FBECDBFDF91CF911F910F9107
:100750000895F8940E94830483EC99E00197F1F7DF
:1007600000C0000063E08AE20E94560460EB89E268
:100770000E94560465E088E20E94560463E08BE222
:100780000E94560464E680E60E94560460E680E714
:100790000E94560485B7826085BF85B78E7F85BF6E
:1007A0008BB780648BBF789464E08FE00E9456041E
:1007B00089EF90E00197F1F700C0000008950F93D2
:1007C0001F93CF938C01FC0180819181BC017695B0
:1007D00067957695679576956795C82FC295CC0FE6
:1007E000C07E81E30E9456046C2F82E30E9456046F
:1007F000F80162816F7085E30E945604C0E009C071
:10080000F801EC0FF11D638186E38C0F0E94560402
:10081000CF5FF8018281C81798F381E00E947204CB
:10082000CF911F910F9108951F920F920FB60F92C3
:1008300011242F933F934F935F936F937F938F93E5
:100840009F93AF93BF93EF93FF938CE20E943B047F
:1008500080937A02FF91EF91BF91AF919F918F9119
:100860007F916F915F914F913F912F910F900FBEAC
:100870000F901F901895CF93C82F80E00E94CD084D
:1008800083E00E94FB080E94FF088C2F0E94FB0857
:100890000E94FF0880E00E94FB080E94FF08C82F0A
:1008A00083E00E94CD088C2FCF910895CF93DF93E2
:1008B000D82FC62F80E00E94CD0882E00E94FB085E
:1008C0000E94FF088D2F0E94FB080E94FF088C2FBA
:1008D0000E94FB080E94FF0883E00E94CD08DF9180
:1008E000CF910895CF93C82F80E00E94CD088C2F20
:1008F000877080580E94FB080E94FF0883E00E94D6
:10090000CD08CF91089580E00E94CD0880EC0E9430
:10091000FB080E94FF0883E00E94CD0808950E9412
:10092000C4080895CF93DF93CDB7DEB72A970FB6EB
:10093000F894DEBF0FBECDBF81E00E94CD0884E0F9
:100940000E94FB080E94FF0880E00E94FB080E94B2
:10095000FF088E8380E00E94FB080E94FF088F83BF
:1009600080E00E94FB080E94FF08888782E00E94C6
:10097000FB080E94FF0880E00E94FB080E94FF081D
:10098000898780E00E94FB080E94FF088A8783E035
:100990000E94CD0885E0FE013696DE011196019099
:1009A0000D928A95E1F729813A814B815C816D81B5
:1009B00070E080E090E02A960FB6F894DEBF0FBE9C
:1009C000CDBFDF91CF910895CF93DF93D82FC62F5E
:1009D00081E00E94CD0885E00E94FB080E94FF088C
:1009E0008D2F0E94FB080E94FF088C2F0E94FB089D
:1009F0000E94FF0883E00E94CD08DF91CF91089507
:100A00000F931F93CF93DF93CDB7DEB765970FB6E4
:100A1000F894DEBF0FBECDBFCE0101960E94F50255
:100A200009811A812B813C814D815E816F8178859E
:100A300089859A850E9446032AE030E03C872B870F
:100A400092E09D878E8789858F87CE010B960E94C5
:100A5000DF0365960FB6F894DEBF0FBECDBFDF9102
:100A6000CF911F910F910895CF93DF93CDB7DEB74C
:100A70006A970FB6F894DEBF0FBECDBF60E875E28F
:100A800080E090E00E942E090E9445090E94E30246
:100A90000E94D8050E948F040E948C060E94A90320
:100AA0004FE051E060E080E00E945F070E94C406D2
:100AB0000E9491088823E1F30E9426030E94B30656
:100AC0008AE090E09A83898382E08B831E821F8272
:100AD000188619861A861B8680E78C8387E08D83AB
:100AE000CE0101960E94DF038BE191E00E947D0917
:100AF0000E94240861E082E00E94E40461E084E056
:100B00000E94E4046894FF24F2F8CE010C960E943F
:100B1000F5020C851D852E853F85488959896A898E
:100B20007B898C899D890E944603182FF816C1F194
:100B3000823051F480917B02882331F08150809380
:100B40007B020E9424082CC0133061F4EBE7F2E032
:100B500080819181891730F48F5F80937B020E949E
:100B600024081EC0113089F4EBE7F2E02081422F07
:100B700050E0818190E001974817590734F42E5FC7
:100B800020937B020E9424080BC0111109C08091A0
:100B90007B02823028F0825080937B020E942408DE
:100BA0000E9400050E9492040E949108F12EADCF90
:100BB000EBE7F2E0108282E081830E94C40887B3F1
:100BC000826087BB82E00E94CD0888B38D7F88BB9E
:100BD0008EEA0E94FB080E94FF0881EA0E94FB083F
:100BE0000E94FF088AED0E94FB080E94FF0882E134
:100BF0000E94FB080E94FF0888EC0E94FB080E94EC
:100C0000FF0888EA0E94FB080E94FF088FE30E9409
:100C1000FB080E94FF0885ED0E94FB080E94FF0868
:100C200080E80E94FB080E94FF0881E80E94FB0800
:100C30000E94FF0880E50E94FB080E94FF0889EDE2
:100C40000E94FB080E94FF0881E20E94FB080E94AC
:100C5000FF0880E20E94FB080E94FF0882E00E94D9
:100C6000FB080E94FF088BED0E94FB080E94FF0812
:100C700084E30E94FB080E94FF0884EA0E94FB08AC
:100C80000E94FF0886EA0E94FB080E94FF088FEA84
:100C90000E94FB080E94FF0883E00E94CD0808958F
:100CA000EAE8F0E010828081886080838FEF9BE229
:100CB000909387008093860080818B7F80838081E2
:100CC00083608083EDE7F0E0808180618083089518
:100CD0001F920F920FB60F9211248F939F9381E072
:100CE0008093680280916D02882379F0F8941092C5
:100CF0006D028091000180936E029091000181E06D
:100D0000911180E08093000178949F918F910F90D2
:100D10000FBE0F901F901895CF93DF930E94D805B8
:100D20000E944509C0E0D0E005C0BE0180E00E94FD
:100D30004C092196C11588E0D807B8F310926E02CD
:100D400081E08093000110926D0210926C0210926B
:100D50006B0210926A02109269020E945006789407
:100D6000DF91CF910895CF93DF93C0E0D0E005C02D
:100D7000BE0180E00E944C092196C11588E0D80789
:100D8000B8F3DF91CF910895F89481E080936D02DC
:100D900078940895EF92FF920F931F93CF93DF9370
:100DA000F82EE62E00EE040F80910001811103C0A1
:100DB000C0E0D0E002C0C0E0D4E010E01DC0802F51
:100DC00090E0612F70E0FC01EE0FFF1FEE0FFF1FA0
:100DD000E80FF91FE60FF71FEB54FF4F84916E0DDC
:100DE000711D9E0190E8F99E200D311D1124620FA6
:100DF000731F0E944C091F5F153008F3DF91CF91DC
:100E00001F910F91FF90EF900895FF920F931F9302
:100E1000CF93DF93F82ED62F8A01C0E00AC08C2F23
:100E2000880F8C0F682F660F6D0F8F2D0E94CA06DA
:100E3000CF5FF801EC0FF11D40814111F0CFDF9140
:100E4000CF911F910F91FF900895EF92FF920F9312
:100E50001F93CF93DF93F82EE62E00EE040F8091C0
:100E60000001811103C0C0E0D0E002C0C0E0D4E0C6
:100E700010E01CC0E02FF0E0612F70E0EE0FFF1FCC
:100E8000EE0FFF1FEE0FFF1FE60FF71FE057FD4F9E
:100E900084916E0D711D9E0190E8F99E200D311D0B
:100EA0001124620F731F0E944C091F5F183010F34A
:100EB000DF91CF911F910F91FF90EF900895FF92D6
:100EC0000F931F93CF93DF93F82ED62F8A01C0E0A4
:100ED0000AC06C2F660F660F660F6C1B6D0F8F2D8F
:100EE0000E942507CF5FF801EC0FF11D40814111F1
:100EF000F0CFDF91CF911F910F91FF900895BF9296
:100F0000CF92DF92EF92FF920F931F93CF93DF93D5
:100F1000E82EB62E80910001811103C0C12CD12C86
:100F200004C0C12C6894DD24D2F800E010E029C090
:100F3000E6E1F0E0EC1BFD0B27E1209FC001219FC3
:100F4000900D1124E80FF91FE059FF4F8491B8016B
:100F50006E0D711D7695762F6627779567956C0DCA
:100F60007D1D9E012B0D311D620F731F0E944C09C8
:100F7000219602C0C0E0D0E0C731D105CCF20F5FAE
:100F80001F4F03301105B4F3F12CE701D695DC2F88
:100F9000CC27D795C795CC0DDD1DCB0DD11DBE013E
:100FA000625E7F4F8EE00E944C09BE01615E7F4F02
:100FB0008FE10E944C09BE01605E7F4F8FE10E946D
:100FC0004C09BE016F5D7F4F8FE10E944C09BE014D
:100FD0006E5D7F4F8EE00E944C0900E010E027C05C
:100FE00087E1809FF001819FF00D1124EC0FFD1F20
:100FF000E059FF4F8491B8016E0D7F1D7695762FD5
:101000006627779567956C0D7D1D9E012B0D311D13
:10101000620F731F635D7F4F0E944C09219602C0CF
:10102000C0E0D0E0C731D105DCF20F5F1F4F0330C5
:101030001105B4F3DF91CF911F910F91FF90EF90C5
:10104000DF90CF90BF90089542E452E060E080E0EE
:101050000E945F0741E552E060E082E00E940507E0
:1010600048E552E064E382E00E94050742E652E070
:1010700060E083E00E94050780917B02811106C039
:101080004EE360E082E00E94CA060DC0813031F478
:101090004EE360E083E00E94CA0605C04EE364E3CD
:1010A00082E00E94CA066CE185E00E947F070E94F0
:1010B000C4060895CF93DF93D82FC62F88B38D7FB2
:1010C00088BB82E00E94CD088D2F8F70806B0E94BC
:1010D000FB080E94FF088C2F8F700E94FB080E9463
:1010E000FF088C2F82958F7080610E94FB080E9400
:1010F000FF0883E00E94CD08DF91CF910895CF9340
:10110000C82F82E00E94CD0888B3826088BB8C2FF4
:101110000E94FB080E94FF0883E00E94CD08CF9147
:1011200008951F93CF93DF9380916802811122C0AD
:1011300027C060E0812F0E945A08C0E0D0E015C0AF
:1011400080916E02811103C080E090E002C080E0D7
:1011500094E020E8129F800D911D11248C0F9D1F9B
:101160000E9450090E947F082196C038D10540F3A3
:101170001F5F01C010E01830E0F21092680281E0B9
:10118000DF91CF911F91089587B38C6B87BB87B395
:101190008F7B87BB80E58DB9089581110AC088B324
:1011A000877F88BB88B3846088BB88B3806188BB35
:1011B0000895813051F488B38F7E88BB88B38460F2
:1011C00088BB88B3886088BB0895823051F488B3A7
:1011D0008B7F88BB88B3886088BB88B3806188BBFD
:1011E000089588B3886088BB88B3846088BB88B35F
:1011F000806188BB08958FB9779BFECF0895779B58
:10120000FECF8FB108951F920F920FB60F92112447
:101210008F938CB180937D0281E080936F028F91D8
:101220000F900FBE0F901F9018955D9BFECF8CB94D
:101230000895CF93C82F8A3019F48DE00E941509C4
:101240008C2F0E94150980E090E0CF91089581E0F5
:1012500091E0909381028093800208959B01AC01FC
:1012600060E070EB84E090E00E9454092150310965
:1012700030BD29B988E98AB986E880BD0E9427096E
:101280008AE090E00E947609089585B7806885BF5E
:1012900080B7886080BF0895FB01FC5E808308955D
:1012A0009C5EFC0180810895A1E21A2EAA1BBB1B43
:1012B000FD010DC0AA1FBB1FEE1FFF1FA217B30722
:1012C000E407F50720F0A21BB30BE40BF50B661F38
:1012D000771F881F991F1A9469F7609570958095FC
:1012E00090959B01AC01BD01CF01089560918002F2
:1012F000709181020E94AD0908950F931F93CF93BF
:10130000DF93E0918002F0918102238121FF1BC0D5
:101310008C01D0E0C0E0F80181918F0160918002E2
:1013200070918102DB011896ED91FC911997882349
:1013300031F00995892B79F3DFEFCFEFECCF8AE01D
:101340000995892B19F08FEF9FEF02C08D2F9C2FED
:10135000DF91CF911F910F9108950F931F93CF931A
:10136000DF93FB01238121FD03C08FEF9FEF2CC092
:1013700022FF16C0468157812481358142175307C9
:1013800044F4A081B1819D012F5F3F4F31832083C1
:101390008C93268137812F5F3F4F3783268314C07C
:1013A0008B01EC01FB010084F185E02D0995892B6F
:1013B000E1F6D80116968D919C9117970196179694
:1013C0009C938E931697CE01DF91CF911F910F9131
:0613D0000895F894FFCF20
:1013D600010000000200000000190900000000538F
:1013E60074617274696E672E2E2E006D657373615B
:1013F60067652073656E740054657374696E672043
:1014060043414E2E2E2E0066696E69736865642010
:1014160074657374696E672043414E3A20256420D3
:101426006572726F72730A005374617274696E67C3
:10143600205352414D20746573742E2E2E00577220
:10144600697465207068617365206572726F723A9F
:10145600206578745F72616D5B2534645D203D2084
:1014660025303258202873686F756C6420626520B9
:1014760025303258290A0052657472696576616CA6
:10148600207068617365206572726F723A206578A4
:10149600745F72616D5B2534645D203D20253032BA
:1014A60058202873686F756C642062652025303279
:1014B60058290A005352414D207465737420636F96
:1014C6006D706C657465642077697468200A2534CC
:1014D60064206572726F727320696E207772697408
:1014E6006520706861736520616E64200A25346426
:1014F600206572726F727320696E207265747265F0
:101506006976616C2070686173650A0A00646F6EA3
:1015160065004D656E752050696E672D506F6E675C
:10152600002053746172740020537562204D656EFD
:08153600750020517569740075
:00000001FF
