S010000070696E67706F6E672E73726563B2
S11300000C9426010C9443010C9443010C94430179
S11300100C9443010C9443010C9443010C94E602A8
S11300200C9443010C9443010C9443010C9443013C
S11300300C9443010C9443010C9443010C9443012C
S11300400C9443010C9443010C9443010C94A403B9
S11300500C9443010C9443010C9443010C9443010C
S11300600C9443010C9443010C9443010C944301FC
S1130070000000000000005F0000000700070014FB
S11300807F147F14242A7F2A1223130864623649BA
S11300905522500005030000001C224100004122AB
S11300A01C00082A1C2A0808083E080800503000D2
S11300B00008080808080060600000201008040216
S11300C03E5149453E00427F40004261514946212C
S11300D041454B311814127F1027454545393C4A98
S11300E049493001710905033649494936064949E8
S11300F0291E00363600000056360000000814227F
S11301004114141414144122140800020151090664
S1130110324979413E7E1111117E7F494949363E6B
S1130120414141227F4141221C7F494949417F0984
S11301300901013E414151327F0808087F00417F97
S113014041002040413F017F081422417F4040404C
S1130150407F0204027F7F0408107F3E4141413EFC
S11301607F090909063E4151215E7F091929464646
S11301704949493101017F01013F4040403F1F206F
S113018040201F7F2018207F631408146303047821
S11301900403615149454300007F414102040810B2
S11301A02041417F000004020102044040404040DD
S11301B0000102040020545454787F4844443838E1
S11301C044444420384444487F3854545418087EE6
S11301D0090102081454543C7F0804047800447D47
S11301E040002040443D00007F10284400417F40EF
S11301F0007C041804787C080404783844444438A7
S11302007C14141408081414187C7C08040408488A
S113021054545420043F4440203C4040207C1C2043
S113022040201C3C4030403C44281028440C505092
S1130230503C4464544C44000836410000007F00A4
S113024000004136080002010302010011241FBE10
S1130250CFEFD4E0DEBFCDBF11E0A0E0B1E0E8EB2A
S1130260F8E002C005900D92AE30B107D9F721E055
S1130270AEE0B1E001C01D92A932B207E1F70E94DD
S1130280AB010C945A040C94000081B3806281BBCE
S113029081B3877F81BB89E08EBD80E48FBD82E01E
S11302A090E09BBD8ABD81B38F7E81BB0895CF93BF
S11302B0DF93FC011092001000C0849BFECFA0E0ED
S11302C0B0E18C91C6E1D1E02881398190E0821BB4
S11302D0930B918380838C912A813B8190E0821BD4
S11302E0930B938382838C9190E0958384838C9188
S11302F090E09783868380B386958695869591E072
S11303008927817080871186CF01DF91CF9108956D
S1130310CF93DF93CDB7DEB72A970FB6F894DEBF3D
S11303200FBECDBFCE0101960E9457018AE0FE01A7
S11303303196A6E1B1E001900D928A95E1F72A96F3
S11303400FB6F894DEBF0FBECDBFDF91CF910895F5
S11303500E946503089560E875E280E090E00E94E1
S1130360CF030E94E6030E9445010E94CA010E9435
S1130370A8010E9488010E94540248E460E080E0E1
S11303800E94A00249E666E080E00E94A00280E0AC
S113039090E00895E0E2F1E0108282E081830E941F
S11303A0650387B3826087BB82E00E946E0388B3D3
S11303B08D7F88BB8EEA0E949C030E94A00381EA81
S11303C00E949C030E94A0038AED0E949C030E9449
S11303D0A00382E10E949C030E94A00388EC0E9477
S11303E09C030E94A00388EA0E949C030E94A0032D
S11303F08FE30E949C030E94A00385ED0E949C034E
S11304000E94A00380E80E949C030E94A00381E84C
S11304100E949C030E94A00380E50E949C030E940A
S1130420A00389ED0E949C030E94A00381E20E9424
S11304309C030E94A00380E20E949C030E94A003EC
S113044082E00E949C030E94A0038BED0E949C0307
S11304500E94A00384E30E949C030E94A00384EAF8
S11304600E949C030E94A00386EA0E949C030E94AF
S1130470A0038FEA0E949C030E94A00383E00E94D1
S11304806E030895EAE8F0E088E080838FE990E065
S1130490909387008093860084E08083EDE7F0E00A
S11304A08081806180830895CF93DF930E94CA0185
S11304B00E94E603C0E0D0E005C0BE0180E00E94D7
S11304C0ED032196C11588E0D807B8F31092130103
S11304D081E0809314011092120110921101109284
S11304E0100110920F0110920E010E9442027894A2
S11304F0DF91CF910895CF93DF93D82FC62F88B380
S11305008D7F88BB82E00E946E038D2F8F70806B7D
S11305100E949C030E94A0038C2F8F700E949C0356
S11305200E94A0038C2F82958F7080610E949C038F
S11305300E94A00383E00E946E03DF91CF9108958F
S11305400F931F93CF93DF93182FD62F00EE040F32
S113055080911401C0E021C06C2F6D0F812F0E9487
S11305607B02802F90E02C2F30E0FC01EE0FFF1F68
S1130570EE0FFF1FE80FF91FE20FF31FE059FF4FC3
S1130580849190E8199FB00111247C5F2D0F311DD7
S1130590620F731F0E94ED03CF5FC530E8F2DF9155
S11305A0CF911F910F910895CF93C82F82E00E949D
S11305B06E0388B3826088BB8C2F0E949C030E94C8
S11305C0A00383E00E946E03CF9108951F920F92BF
S11305D00FB60F9211240F931F932F933F934F93B2
S11305E05F936F937F938F939F93AF93BF93CF93B7
S11305F0DF93EF93FF9380910E0181110AC08091E4
S11306000E011092100110920F0160E080E00E9430
S11306107B0280910F019091100100E014E0081B0F
S1130620190B0134110510F000E410E0C0E0D0E033
S11306300EC08091130180910F01909110019C5F75
S11306408C0F9D1F0E94F1030E94D4022196C017B3
S1130650D10778F380910F0190911001080F191FB1
S11306601093100100930F0180910F0190911001DC
S113067081159440A8F010920E01809112018823F4
S113068079F0F8941092120180911401809313016F
S11306909091140181E0911180E080931401789489
S11306A0FF91EF91DF91CF91BF91AF919F918F9186
S11306B07F916F915F914F913F912F911F910F9176
S11306C00F900FBE0F901F90189587B38C6B87BB4C
S11306D087B38F7B87BB80E58DB9089581110AC0EC
S11306E088B3877F88BB88B3846088BB88B3806104
S11306F088BB0895813051F488B38F7E88BB88B35A
S1130700846088BB88B3886088BB0895823051F4C4
S113071088B38B7F88BB88B3886088BB88B38061CB
S113072088BB089588B3886088BB88B3846088BB1D
S113073088B3806188BB08958FB9779BFECF0895F5
S1130740779BFECF8FB108951F920F920FB60F9231
S113075011248F938CB18093220181E08093150141
S11307608F910F900FBE0F901F9018955D9BFECF39
S11307708CB90895CF93C82F8A3019F48DE00E9464
S1130780B6038C2F0E94B60380E090E0CF910895C9
S113079080E091E0909326018093250108959B01C8
S11307A0AC0160E070EB84E090E00E94F50321501E
S11307B0310930BD29B988E98AB986E880BD0E942B
S11307C0C8038AE090E00E941704089585B7806802
S11307D085BF80B7886080BF0895FB01FC5E80837D
S11307E008959C5EFC0180810895A1E21A2EAA1B43
S11307F0BB1BFD010DC0AA1FBB1FEE1FFF1FA217CD
S1130800B307E407F50720F0A21BB30BE40BF50BC9
S1130810661F771F881F991F1A9469F76095709552
S1130820809590959B01AC01BD01CF010895609125
S11308302501709126010E941E0408950F931F93B1
S1130840CF93DF93FB01238121FD03C08FEF9FEF43
S11308502CC022FF16C0468157812481358142175E
S1130860530744F4A081B1819D012F5F3F4F318331
S113087020838C93268137812F5F3F4F37832683D4
S113088014C08B01EC01FB010084F185E02D099576
S1130890892BE1F6D80116968D919C9117970196B4
S11308A017969C938E931697CE01DF91CF911F914B
S10B08B00F910895F894FFCFA5
S11108B80000000200000000BA03000000006F
S9030000FC
