S010000070696E67706F6E672E73726563B2
S11300000C9438000C9455000C9455000C94550035
S11300100C9455000C9455000C9455000C94550008
S11300200C9455000C9455000C9455000C945500F8
S11300300C9455000C9455000C9455000C945500E8
S11300400C9455000C9455000C9455000C94E2004B
S11300500C9455000C9455000C9455000C945500C8
S11300600C9455000C9455000C9455000C945500B8
S113007011241FBECFEFD4E0DEBFCDBF12E0A0E05D
S1130080B1E0E2E5F8E002C005900D92A631B107B7
S1130090D9F722E0A6E1B2E001C01D92A232B20774
S11300A0E1F70E94C3000C9427040C94000081B370
S11300B0806281BB89E08EBD80E48FBD82E090E0E8
S11300C09BBD8ABD109200100895CF93C82F1F9234
S11300D08F938EE091E09F938F930E944901C770A4
S11300E0C0930010000000000F900F900F900F902D
S11300F0849BFECF00000000C09100101F92CF939C
S11301008AE191E09F938F930E9449010F900F9091
S11301100F900F908C2FCF910895CF93DF9380E0B1
S11301200E946500C7E1D2E090E09983888381E072
S11301300E94650090E09B838A83DF91CF910895AC
S1130140CF92DF92EF92FF92CF93DF9380E00E94F1
S11301506500C7E1D2E02881398190E06C01C21AC0
S1130160D30A81E00E9465002A813B8190E07C01F2
S1130170E21AF30AC701B601DF91CF91FF90EF9025
S1130180DF90CF90089560E875E280E090E00E94EF
S11301900D010E9420010E9457000E948D000E94C0
S11301A0A0009F938F937F936F9382E291E09F933C
S11301B08F930E9449010F900F900F900F900F9012
S11301C00F90EDCF1F920F920FB60F9211248F93C1
S11301D08CB180931B0281E0809316028F910F9063
S11301E00FBE0F901F9018955D9BFECF8CB908959C
S11301F0CF93C82F8A3019F48DE00E94F4008C2F1D
S11302000E94F40080E090E0CF91089580E091E0B6
S113021090931F0280931E0208959B01AC0160E03D
S113022070EB84E090E00E9427012150310930BD39
S113023029B988E98AB986E880BD0E940601089533
S113024085B7806885BF80B7886080BF0895A1E2C4
S11302501A2EAA1BBB1BFD010DC0AA1FBB1FEE1F3C
S1130260FF1FA217B307E407F50720F0A21BB30B87
S1130270E40BF50B661F771F881F991F1A9469F703
S113028060957095809590959B01AC01BD01CF015F
S11302900895A0E0B0E0EFE4F1E00C940004AE01B6
S11302A04B5F5F4FFA0161917191AF0180911E0222
S11302B090911F020E945F01E2E00C941C04ABE0E9
S11302C0B0E0E5E6F1E00C94F0036C017B018A01F7
S11302D0FC0117821682838181FFCCC1CE01019675
S11302E03C01F6019381F70193FD859193FF819180
S11302F07F01882309F4BAC1853239F493FD8591CD
S113030093FF81917F01853229F4B60190E00E9428
S11303105603E7CF912C212C312CFFE1F315D8F0B3
S11303208B3279F038F4803279F08332A1F4232DC2
S113033020611DC08D3261F0803369F4232D21606A
S113034016C0832D8260382EE32DE4603E2E2AC031
S1130350F32DF8601DC037FC2DC020ED280F2A3086
S113036040F08E32B9F436FC81C1232D2064322E44
S113037019C036FE06C08AE0989E200D1124922EE4
S113038011C0EAE02E9E200D1124222EF32DF062DE
S11303903F2E08C08C3621F4832D8068382E02C08D
S11303A0883641F4F70193FD859193FF81917F0194
S11303B08111B3CF982F9F7D9554933028F40C5F0F
S11303C01F4F9FE399830DC0833631F0833771F05B
S11303D0833509F059C021C0F801808189830E5FFB
S11303E01F4F88248394912C530113C02801F2E0F9
S11303F04F0E511CF801A080B18036FE03C0692D58
S113040070E002C06FEF7FEFC5010E944B034C0107
S11304108201F32DFF773F2E16C0280122E0420E01
S1130420511CF801A080B18036FE03C0692D70E034
S113043002C06FEF7FEFC5010E9440034C01F32D12
S1130440F0683F2E820133FC1BC0822D90E0881699
S11304509906B0F4B60180E290E00E9456032A9413
S1130460F4CFF50137FC859137FE81915F01B60128
S113047090E00E94560321102A9421E0821A9108E8
S11304808114910471F7E8C0843611F0893641F57E
S1130490F80137FE07C060817181828193810C5F0E
S11304A01F4F08C060817181072E000C880B990BC7
S11304B00E5F1F4FF32DFF763F2E97FF09C09095D7
S11304C08095709561957F4F8F4F9F4FF0683F2EB9
S11304D02AE030E0A3010E949203882E861845C0CA
S11304E0853731F4232D2F7EB22E2AE030E025C04B
S11304F0932D997FB92E8F36C1F018F4883579F091
S1130500B5C0803719F0883721F0B0C0E92FE06119
S1130510BE2EB4FE0DC0FB2DF460BF2E09C034FE08
S11305200AC0292F2660B22E06C028E030E005C09C
S113053020E130E002C020E132E0F801B7FE07C05C
S113054060817181828193810C5F1F4F06C060813D
S1130550718180E090E00E5F1F4FA3010E9492031F
S1130560882E8618FB2DFF773F2E36FE0DC0232DD7
S11305702E7FA22E891458F434FE0BC032FC09C01D
S1130580832D8E7EA82E05C0B82CA32C03C0B82CB6
S113059001C0B92CA4FE0FC0FE01E80DF11D80813D
S11305A0803321F49A2D997EA92E09C0A2FE06C09B
S11305B0B394B39404C08A2D867809F0B394A3FC51
S11305C011C0A0FE06C0B21488F4280C922C9B180B
S11305D00EC0B21460F4B60180E290E00E945603AB
S11305E0B394F7CFB21418F42B1802C0982C212C12
S11305F0A4FE10C0B60180E390E00E945603A2FE60
S113060017C0A1FC03C088E790E002C088E590E031
S1130610B6010CC08A2D867859F0A1FE02C08BE287
S113062001C080E2A7FC8DE2B60190E00E9456036F
S1130630891438F4B60180E390E00E9456039A943A
S1130640F7CF8A94F301E80DF11D8081B60190E0A3
S11306500E9456038110F5CF222009F442CEB60140
S113066080E290E00E9456032A94F6CFF601868138
S1130670978102C08FEF9FEF2B96E2E10C940C045C
S1130680FC010590615070400110D8F78095909559
S11306908E0F9F1F0895FC0161507040019001105E
S11306A0D8F7809590958E0F9F1F08950F931F93F1
S11306B0CF93DF93FB01238121FD03C08FEF9FEFD5
S11306C02CC022FF16C046815781248135814217F0
S11306D0530744F4A081B1819D012F5F3F4F3183C3
S11306E020838C93268137812F5F3F4F3783268366
S11306F014C08B01EC01FB010084F185E02D099508
S1130700892BE1F6D80116968D919C911797019645
S113071017969C938E931697CE01DF91CF911F91DC
S11307200F910895FA01AA27283051F1203181F15F
S1130730E8946F936E7F6E5F7F4F8F4F9F4FAF4FE5
S1130740B1E03ED0B4E03CD0670F781F891F9A1FF8
S1130750A11D680F791F8A1F911DA11D6A0F711DAC
S1130760811D911DA11D20D009F468943F912AE0B8
S1130770269F11243019305D3193DEF6CF010895A0
S1130780462F4770405D4193B3E00FD0C9F7F6CFD1
S1130790462F4F70405D4A3318F0495D31FD405299
S11307A0419302D0A9F7EACFB4E0A695979587952F
S11307B077956795BA95C9F700976105710508950E
S11307C09B01AC010A2E06945795479537952795BA
S11307D0BA95C9F7620F731F841F951FA01D089552
S11307E02F923F924F925F926F927F928F929F923D
S11307F0AF92BF92CF92DF92EF92FF920F931F932B
S1130800CF93DF93CDB7DEB7CA1BDB0B0FB6F894DB
S1130810DEBF0FBECDBF09942A88398848885F841B
S11308206E847D848C849B84AA84B984C884DF808C
S1130830EE80FD800C811B81AA81B981CE0FD11D70
S11308400FB6F894DEBF0FBECDBFED010895F89446
S1050850FFCFD4
S11308520000000200000000F800000000005365E0
S11308626E64696E672025640A00476F74202564EC
S11308720A00706F733D2825642C202564290A0020
S11308825374617274696E67205352414D207465CA
S113089273742E2E2E00577269746520706861730A
S11308A265206572726F723A206578745F72616D49
S11308B25B2534645D203D2025303258202873683E
S11308C26F756C642062652025303258290A005203
S11308D2657472696576616C207068617365206500
S11308E272726F723A206578745F72616D5B25343F
S11308F2645D203D2025303258202873686F756C62
S1130902642062652025303258290A005352414D31
S1130912207465737420636F6D706C6574656420F4
S113092277697468200A253464206572726F727361
S113093220696E207772697465207068617365201E
S1130942616E64200A253464206572726F727320AA
S1130952696E2072657472656976616C2070686173
S109096273650A0A00009F
S9030000FC
