:100000000C9438000C9442000C9442000C94420072
:100010000C9442000C9442000C9442000C94420058
:100020000C9442000C9442000C9442000C94420048
:100030000C9442000C9442000C9442000C94420038
:100040000C9442000C9442000C9442000C94420028
:100050000C9442000C9442000C9442000C94420018
:100060000C9442000C9442000C9442000C94420008
:1000700011241FBECFEFD4E0DEBFCDBF0E944400ED
:100080000C9460000C94000087B3816087BB88B338
:10009000816088BB2FEF8FE797E021508040904030
:1000A000E1F700C0000088B38E7F88BB2FEF8FE799
:1000B00097E0215080409040E1F700C00000E7CF7A
:0400C000F894FFCFE2
:00000001FF
